:020000040800F2
:10000000B00A00202902000831020008330200086B
:10001000350200083702000839020008000000001D
:100020000000000000000000000000003B0200088B
:100030003D020008000000003F02000841020008E5
:10004000430200084302000843020008430200087C
:10005000430200084302000843020008430200086C
:10006000430200084302000843020008430200085C
:10007000430200084302000843020008430200084C
:10008000430200084302000843020008430200083C
:10009000430200084302000843020008EF02000880
:1000A000430200084302000843020008430200081C
:1000B000430200084302000843020008430200080C
:1000C00043020008430200084302000843020008FC
:1000D00043020008430200084302000843020008EC
:1000E00043020008430200084302000843020008DC
:1000F00043020008430200084302000843020008CC
:1001000043020008430200084302000843020008BB
:100110004302000843020008C928000835290008E6
:10012000430200084302000843020008430200089B
:10013000430200084302000843020008430200088B
:10014000430200084302000843020008430200087B
:10015000430200084302000843020008430200086B
:10016000430200084302000843020008430200085B
:100170004302000843020008430200080000000098
:10018000430200084302000800F002F800F03CF8C7
:100190000AA090E8000C82448344AAF10107DA45E2
:1001A00001D100F031F8AFF2090EBAE80F0013F0F8
:1001B000010F18BFFB1A43F0010318470044000069
:1001C00020440000103A24BF78C878C1FAD85207FA
:1001D00024BF30C830C144BF04680C6070470000C1
:1001E0000023002400250026103A28BF78C1FBD840
:1001F000520728BF30C148BF0B6070471FB502F0DF
:1002000028FD1FBD10B510BD00F031F81146FFF7F5
:10021000F5FF02F0CFFC00F04FF803B4FFF7F2FF58
:1002200003BC00F057F80000094880470948004720
:10023000FEE7FEE7FEE7FEE7FEE7FEE7FEE7FEE796
:10024000FEE7FEE704480549054A064B70470000F3
:10025000AD28000889010008B0040020B00A002081
:10026000B0060020B0060020704770477047754602
:1002700000F02CF8AE4605006946534620F0070012
:10028000854618B020B5FFF7DDFFBDE820404FF0F0
:1002900000064FF000074FF000084FF0000B21F070
:1002A0000701AC46ACE8C009ACE8C009ACE8C0093D
:1002B000ACE8C0098D46704710B50446AFF3008026
:1002C0002046BDE81040FFF7A8BF00000048704777
:1002D0005004002001491820ABBEFEE726000200B2
:1002E000704710B502F0F2FB02F089FC10BD10B5AA
:1002F000202000F00DF820B101F04EFA202000F08F
:1003000001F810BD0149086070470000143C01402D
:1003100001460020034A12680A400AB1012000E0A9
:1003200000207047143C0140002123498279002AB3
:100330003AD00A46126803689A430B461A600A1DAF
:10034000126803689A430B1D1A60027911440A6807
:1003500003681A430A60184A0832126803689A430D
:10036000154B08331A601A1D126803689A43124B22
:100370000C331A604279102A0ED11A1F12680368D2
:100380001A430D4B08331A601A1D126803681A438A
:10039000094B0C331A600DE00749427911440A6891
:1003A00003681A430A6005E0027911440A68036889
:1003B0009A430A6070470000003C01400021016040
:1003C00001710C2141710021817170470EB5052129
:1003D000032002F04BFA01A8FFF7F0FF2020019064
:1003E00000208DF808000C208DF8090001208DF800
:1003F0000A0001A8FFF798FF17208DF800000020E1
:100400008DF801008DF8020001208DF80300684688
:1004100002F03CF80EBD000010B500242021054874
:1004200000F007F908B9012000E00020044620464A
:1004300010BD0000000C02401CB5044600200190D5
:1004400001A80423032238210090104801F0AAFCDF
:100450009DF804004FF4706101EA0020208020889C
:100460009DF80510084320809DF806004FF4706148
:1004700001EA0020608060889DF8071008436080D2
:10048000608840F23F11081A60801CBD0054004093
:1004900010B500F027F800231A463821104801F063
:1004A00099FC80231A4638210D4801F093FC8023E3
:1004B000852238210A4801F08DFC0023862238214C
:1004C000074801F087FC0E2388223821044801F0F8
:1004D00081FC0123A4223821014801F07BFC10BDDE
:1004E000005400401CB510211B4800F0ABF805205B
:1004F00002F056FB1021184800F0A6F84FF4AF7038
:1005000002F04EFB684600F0A1F801208DF80400CF
:1005100002208DF8050000208DF806008DF80700F8
:100520002020009069460C4800F018F820210A4865
:1005300000F088F8012002F033FB2021064800F08B
:1005400083F800208DF8040001208DF8060069462C
:10055000014800F003F81CBD000C0240F0B50A464B
:1005600000210023002400BF3DE0012505FA01F32E
:10057000156805EA03049C4234D105684F00032640
:10058000BE40B543056015794E00B5400668354359
:1005900005601579012D02D01579022D16D18568D7
:1005A0004F000326BE40B543856055794E00B540E7
:1005B000866835438560456801268E40B5434560B1
:1005C000456896798E40B6B235434560C5684F00A0
:1005D0000326BE40B543C560D5794E00B540C66818
:1005E0003543C560491C1029BFD3F0BDF0B50023C9
:1005F00000244D07ED0E02FA05F3CE1000F12005A0
:1006000055F826504E07F70E0F26BE40B543CF10C3
:1006100000F1200646F82750CE1000F1200555F8CD
:10062000265045EA0304CE1000F1200545F8264087
:10063000F0BD0246002013690B400BB1012000E021
:100640000020704741837047018370474FF6FF7168
:1006500001600021017141718171C1717047000019
:100660001CB56846FFF7F2FF00208DF80400022059
:100670008DF8050000208DF806008DF80700202079
:10068000009069460148FFF769FF1CBD000C02405D
:100690001CB56846FFF7DAFF01208DF80400022040
:1006A0008DF8050000208DF806008DF807004FF446
:1006B0000070009069460548FFF750FF1920009030
:1006C00069460348FFF74AFF1CBD000000080240CE
:1006D000000C02401CB5042206210E48FFF786FFDD
:1006E000042207210B48FFF781FF6846FFF7AEFFA2
:1006F000C020009002208DF804008DF80500012034
:100700008DF806008DF8070069460248FFF726FFBE
:100710001CBD00000004024010B5FFF7A1FFFFF769
:10072000B7FF00F003F8FFF7D5FF10BD1CB5062298
:100730000A211548FFF75AFF06220B211248FFF73E
:1007400055FF06220C211048FFF750FF6846FFF7BF
:100750007DFF02208DF804008DF8050000208DF843
:1007600006008DF807004FF4E050009069460648F7
:10077000FFF7F4FE01208DF80400C00300906946E5
:100780000248FFF7EBFE1CBD0008024000000240DB
:1007900010B5164890F81A0498B90121134880F84A
:1007A0001A144FF62071022000F0B8FC104B002202
:1007B00010A1022000F020FD0121162000F0A4F875
:1007C00012E00021094880F81A144DF2DA61022083
:1007D00000F0A4FC064B002207A1022000F00CFD53
:1007E0000021162000F090F810BD00002400002029
:1007F00080360008C2CACB00C2DBCACB00000000B2
:1008000010B54FF6207000F011F806480068401E41
:1008100004490860084604490268142000F09AF868
:1008200010BD000000000020040000203EB504467A
:100830002146012000F072FC4FF6FF700022CDE946
:1008400000206B236522BD210290952000F03AFF25
:100850003EBD000010B5074890F8F40348B90548BC
:10086000B0F8DA0347F26951884202D00846FFF730
:10087000DDFF10BD2400002010B54FF6207000F001
:1008800011F806480068401C0449086008460449FD
:100890000268142000F05EF810BD00000000002087
:1008A000040000203EB504462146002000F036FC3E
:1008B0004FF6FF700022CDE90020BD239522AC2128
:1008C0000290A62000F0FEFE4FF6FF700022CDE958
:1008D0000020AC23A622BD210290952000F0F2FE5C
:1008E0003EBD000010B5074890F8C80348B9054858
:1008F000B0F8AE0347F26951884202D00846FFF7CC
:10090000D1FF10BD2400002070B505460C465CB92F
:100910004DF2DA61284600F093FF094B002209A14D
:10092000284600F0E3FF0AE04FF62071284600F069
:1009300087FF034B002205A1284600F0D7FF70BDBA
:1009400080360008CED5CBC0C62E0000CDC0C3D0A7
:10095000C5C2000070B505460E4614463146204615
:1009600000F032FF034B00223146284600F0BEFF64
:1009700070BD00008036000810B5FFF7B3FFFFF729
:1009800069FF10BD08B54BF6D75001F01AFB25489A
:10099000002325A24FF4937100905F2001F0EEFC3C
:1009A0002048002322A24FF48B710090072001F011
:1009B000E5FC1C48002325A240F2051100902720E9
:1009C00001F0DCFC264B42F239326421132001F0A5
:1009D0008CFA144842F2393322A24F210090402071
:1009E00001F0CCFC0F4842F2393322A23B210090A7
:1009F000182001F0C3FC254B00220421602001F0E7
:100A000074FA234B42F2B0520C215C2001F06DFAD3
:100A1000044800231FA204210090C72001F0AEFC6F
:100A200008BD000020300008CACAC2CC2D313000F9
:100A3000CAF0E8EEE3E5EDEDFBE920F2E5F0ECEEDF
:100A4000EAEEEDF2F0EEEBEBE5F00000E2EEE4EEC4
:100A5000F0EEE4EDEEE920ECE8F8E5EDE80000006A
:100A6000E04300084A4F494E5420494E53544954DC
:100A700055544500464F52204E55434C4541522057
:100A8000524553454152434800000000F4440008D9
:100A9000B445000876312E300000000000B58BB060
:100AA00000F0BEFFFE4800F0B5FF4BF6D75001F056
:100AB00088FA00204FF6FF71CDE9000140F23F13A4
:100AC0000246EF21029000F0FDFD002003211922D3
:100AD000F44BCDE90532CDE907104FF6FF70F2A1D6
:100AE00000220192CDE902210490022040F23F133E
:100AF0004FF48F72EF210090002000F027FD0020BE
:100B00000622E84BCDE90620ECA1059308904FF6AC
:100B1000FF73CDE90130CDE9031040F21D134FF40E
:100B200081726321009000F011FD00200522DD4B51
:100B3000CDE90620E3A1059308904FF6AE53CDE929
:100B40000130CDE9031040F20113E6224F2100905D
:100B500000F0FCFC00200522D24BCDE90620DAA1F2
:100B6000059308904FF6FF73CDE90130CDE90310EE
:100B7000E523CA224F21009000F0E8FC0020052266
:100B8000C84BCDE90620D1A1059308904FF6AE538E
:100B9000CDE90130CDE90310C923AE224F210090E9
:100BA00000F0D4FC00200522BE4BCDE90620C8A1F0
:100BB000059308904FF6FF73CDE90130CDE903109E
:100BC000AD2392224F21009000F0C0FC00200522AE
:100BD000B44BCDE90620BFA1059308904FF6AE5364
:100BE000CDE90130CDE90310912376224F21009009
:100BF00000F0ACFC00200522AA4BCDE90620B6A1EE
:100C0000059308904FF6FF73CDE90130CDE903104D
:100C100075235A224F21009000F098FC00200522F5
:100C2000A04BCDE90620ADA1059308904FF6AE5339
:100C3000CDE90130CDE9031059233E224F21009028
:100C400000F084FC00200522964BCDE90620A4A1EB
:100C5000059308904FF6FF73CDE90130CDE90310FD
:100C60003D2322224F21009000F070FC002005223D
:100C70008C4BCDE906209BA1059308904FF6FF739E
:100C8000CDE90130CDE90310F423DB229F21009050
:100C9000772000F05BFC00200522824BCDE9062086
:100CA00092A1059308904FF6FF73CDE90130CDE98D
:100CB00003104FF48973F9229F210090772000F0F0
:100CC00045FC00200522774BCDE9062005930890CE
:100CD00040F26A5000214FF6AE53CDE90131CDE923
:100CE000031040F20113E62200916321222000F05C
:100CF0002DFC002005226B4BCDE9062005930890C2
:100D00004FF6FF73CDE9013003900490E523CA222A
:100D100063210090222000F019FC00200522614B85
:100D2000CDE90620059308904FF6AE53CDE901308A
:100D300003900490C923AE2263210090222000F08A
:100D400005FC00200522574BCDE9062005930890AD
:100D50004FF6FF73CDE9013003900490AD2392224A
:100D600063210090222000F0F1FB002005224D4B72
:100D7000CDE90620059308904FF6AE53CDE901303A
:100D8000039004909123762263210090222000F0AA
:100D9000DDFB00200522434BCDE90620059308909A
:100DA0004FF6FF73CDE901300390049075235A226A
:100DB00063210090222000F0C9FB00200522394B5E
:100DC000CDE90620059308904FF6AE53CDE90130EA
:100DD0000390049059233E2263210090222000F0CA
:100DE000B5FB002005222F4BCDE906200593089086
:100DF0004FF6FF73CDE90130039004903D2322228A
:100E000063210090104600F0A1FB00200522254B35
:100E1000CDE9062037A1059308904FF6FF73CDE981
:100E20000130CDE9031000903348B0F8C0010A301A
:100E300080B2F423DB22D6210A9000F087FB002049
:100E40000522184BCDE906200593089040F26A5020
:100E50002AA100224FF6FF73CDE901320092CDE9BD
:100E600003102548B0F8E801401D80B24FF48973A3
:100E7000F922D6210A9000F069FB002002210A2203
:100E8000084BCDE90532CDE907101DA14DF2DA631B
:100E9000CDE90130CDE9031002202123002233E007
:100EA0007909000880360008CAF0E8EECAEEEDF2D3
:100EB000F0EEEBEBE5F020CD00000000C4E0F2F72F
:100EC000E8EAE800D2310000D2320000D23300005C
:100ED000D2340000D2350000D2360000D2370000F4
:100EE000D2380000D220F3F1F23A0000D220E8E735
:100EF000EC3A0000300000002400002031323300C2
:100F0000CED5CBC0C62E000063210090104600F065
:100F10001DFB3C48642100220792CDE908210A907C
:100F200039490392CDE90421104647F269510692EE
:100F30000122C223CDE9002102909022DB217720FB
:100F400000F00AFA3148642100220792CDE9082115
:100F50000A902D490392CDE90421104647F26951C8
:100F6000069201228123CDE9002102904F22DB214C
:100F7000772000F0F1F92648642100220A23CDE908
:100F80000732CDE9091014201F4922A3CDE903320D
:100F9000CDE9051010464DF2DA6101223123CDE989
:100FA000002102900022DB21772000F0D5F91648BD
:100FB00000901A48008E4FF6FF7332224FF48E7164
:100FC0000A9001F04BF947F26950FFF76BFC47F2CA
:100FD0006950FFF72BFC0020022140F21F1302464C
:100FE000CDE90010632100F0A7FB0020022140F2B0
:100FF0003F130246CDE90010EF2100F09DFB0BB03E
:1010000000BD0000790800088036000801080008CB
:1010100091070008C2DBCACB0000000024000020BA
:1010200010B500F0EFFC3B480078002870D0002499
:101030006CE03848418804EB440000EBC4023648B9
:1010400030F8220081420BDB3248418804EB440037
:1010500000EBC402304800EB82004088814200DD92
:1010600052E02C48818804EB440000EBC4022A487B
:1010700000EB8200808881420BDB2648818804EBEC
:10108000440000EBC402244800EB8200C088814287
:1010900000DD39E004EB440000EBC4011E4800EB26
:1010A000810090F8240058BB04EB440101EBC4021A
:1010B000194901EB8201886A804704EB440000EB88
:1010C000C401154800EB8100008CC8B1012104EB7C
:1010D000440000EBC402104800EB820080F82410AA
:1010E00004EB440000EBC4010B4800EB8100018CD1
:1010F00004EB440000EBC402074800EB8200C1840B
:1011000000200449087010BD601CC4B2032C90DBA1
:1011100000BFF8E724000020C8030020FEB5044605
:101120000D4604EB440000EBC401324800EB8100A3
:10113000458104EB440000EBC4012E4800EB810024
:10114000828904EB440000EBC4012A4800EB8100D3
:10115000418904EB440000EBC403264800EB830004
:10116000008904EB440606EBC407224E06EB870613
:101170008DE80700F38804EB440606EBC4071D4E18
:1011800006EB8706B28804EB440606EBC407194E4B
:1011900006EB8706718804EB440606EBC407154E80
:1011A00036F8270000F08EFA04EB440000EBC4018F
:1011B000304600EB81000069D0B104EB440000EB45
:1011C000C4060C4800EB8600436904EB440000EBC6
:1011D000C406084800EB8600028B04EB440000EBD9
:1011E000C406044800EB86000169204600F004F8BC
:1011F000FEBD0000C80300202DE9FE4304460D4655
:1012000016461F4604EB440000EBC401514800EBB6
:101210008100056104EB440000EBC4014D4800EB84
:101220008100068304EB440000EBC401494800EB55
:1012300081004761002104EB440000EBC4024548F3
:1012400000EB82004089CDE9001004EB440C0CEB6C
:10125000C408DFF800C10CEB880C0291BCF80480D4
:1012600004EB440C0CEBC409DFF8E8C00CEB890C70
:10127000BCF81CC0C4440CF1180C1FFA8CF304EB2E
:10128000440C0CEBC408DFF8CCC00CEB880CBCF8A9
:10129000048004EB440C0CEBC409DFF8B8C00CEB81
:1012A000890CBCF81CC0C4441FFA8CF204EB440C3B
:1012B0000CEBC408DFF89CC03CF8288004EB440C1D
:1012C0000CEBC409DFF88CC00CEB890CBCF81AC01D
:1012D000C4441FFA8CF004EB440C0CEBC408DFF898
:1012E00074C00CEB880CBCF8221000F0EBF975B35D
:1012F00004EB440202EBC403164A02EB830200979C
:10130000938804EB440202EBC40C124A02EB8C02F9
:10131000928B991804EB440202EBC4030D4A32F895
:10132000233004EB440202EBC40C0A4A02EB8C02A9
:10133000528B981833462A4601F020F8014604EBF8
:10134000440000EBC402034800EB82004184BDE886
:10135000FE830000C80300202DE9FE4F04460F461F
:1013600015469846DDF848B0DDE90C9A0F9E7548A1
:10137000407A00EB400101EBC001734820F82140A6
:101380007048407A00EB400101EBC0016E4800EB71
:10139000810047806B48407A00EB400101EBC001BF
:1013A000694800EB810085806648407A00EB400187
:1013B00001EBC001644800EB8100A0F806806148A1
:1013C000407A00EB400101EBC0015F4800EB810077
:1013D000A0F808905B48407A00EB400101EBC001A7
:1013E000594800EB8100A0F80AA05648407A00EB6B
:1013F000400202EBC002544800EB82000E9981814A
:101400005048407A00EB400101EBC0014E4800EB30
:10141000810006614B48407A00EB400202EBC002BB
:10142000494800EB8200109901834648407A00EB5E
:10143000400202EBC002444800EB82001199416176
:101440004048407A00EB400101EBC0013E4800EB10
:101450008100A0F81AB03B48407A00EB400202EB52
:10146000C002394800EB8200139981833548407AE5
:1014700000EB400202EBC002334800EB82001499FB
:1014800081773048407A00EB400202EBC0022E48E0
:1014900000EB82001599018400212A48407A00EB74
:1014A000400202EBC002284800EB820080F82410C2
:1014B0002448407A00EB400202EBC002224800EBD5
:1014C0008200C1841F48407A00EB400202EBC00258
:1014D0001D4800EB8200169981620E9843462A4609
:1014E0003946CDE9009A0290204600F0EBF8AEB103
:1014F00011980090139AA91804EB0B003246109B28
:1015000000F03CFF01460F48407A00EB400202EB3E
:10151000C0020D4800EB820041840AE00021094826
:10152000407A00EB400202EBC002074800EB820069
:1015300041840448407A401CC1B202484172BDE86F
:10154000FE8F000024000020C80300202DE9FE4F7C
:1015500004460F4615469846DDF848B0DDE90C9A7A
:101560000F9E5748007A00EB800155480C3020F858
:1015700031400C38007A00EB800151480C3000EB10
:10158000C10047804E48007A00EB80014C480C3087
:1015900000EBC10085804A48007A00EB8001484892
:1015A0000C3000EBC100A0F806804548007A00EB43
:1015B000800143480C3000EBC100A0F8089040487F
:1015C000007A00EB80013E480C3000EBC100A0F82F
:1015D0000AA03B48007A00EB800239480C3000EB4F
:1015E000C2000E9981813648007A00EB80013448B0
:1015F0000C3000EBC10006613148007A00EB80023C
:101600002F480C3000EBC200109901832C48007A5F
:1016100000EB80022A480C3000EBC20011994161B6
:101620002748007A00EB800125480C3000EBC10010
:10163000A0F81AB02248007A00EB800220480C3053
:1016400000EBC200139981831D48007A00EB8002F1
:101650001B480C3000EBC200149901620E984346FF
:101660002A463946CDE9009A0290204600F02AF831
:10167000A6B111980090139AA91804EB0B003246FA
:10168000109B00F07BFE01460D48007A00EB8002C3
:101690000B480C3000EBC200818409E000210848AF
:1016A000007A00EB800206480C3000EBC200818417
:1016B0000348007A401C02490872BDE8FE8F000012
:1016C000240000202DE9F84F06460F469046994623
:1016D000DDE90BA50A9C4B46424639463046CDF81B
:1016E00000A000F0BFFB002C24DD601E304481B25E
:1016F0004B4642463046009500F0B4FB601EA9EB15
:10170000000082B24B4639463046009500F0AAFBF5
:10171000611E791A88B24B4642463946009500F060
:10172000A1FB601E404483B24246394630460095D4
:1017300000F098FBBDE8F88F2DE9F84306460F4608
:1017400090469946DDE90845601E304481B24B461B
:1017500042463046009500F085FB601EA9EB000074
:1017600082B24B4639463046009500F07BFB611E45
:10177000791A88B24B4642463946009500F072FB12
:10178000601E404483B2424639463046009500F020
:1017900069FBBDE8F883000010B5FEF73DFE08497F
:1017A00008700846007850B10648FEF745FE054827
:1017B000008803494880034841880148818010BD62
:1017C0002400002010000020F0B50022002428B9D9
:1017D00030230B70491C00230B70F0BD002802DA87
:1017E0002D230B70491C10E00A2390FBF3F503FB3B
:1017F000150330330B700A2390FBF3F313B1491C2C
:10180000531CDAB20A2390FBF3F00028ECD1891ABA
:10181000002309E0CC5C8D18ED1A2D78CD548D187D
:10182000ED1A2C705D1CEBB202EBD276012707EBB0
:1018300066069E42EEDC00238D186B7000BFCCE77D
:10184000FEB504460D4604EB8401274800EBC100B9
:10185000458104EB8401244800EBC100818904EB3D
:101860008402214800EBC200428904EB84031E4835
:1018700000EBC300008904EB84071B4E06EBC70690
:10188000CDE901210090F38804EB8407164E06EBA6
:10189000C706B28804EB8407134E06EBC7067188AF
:1018A00004EB8407104E36F83700FFF70BFF04EB0C
:1018B0008401304600EBC1000069A0B104EB84064E
:1018C000094800EBC60004EB84064369064800EBB8
:1018D000C600028B04EB8406034800EBC6000169D6
:1018E000204600F003F8FEBD300000202DE9FE4345
:1018F00004460D4616461F4604EB8401404800EBA3
:10190000C100056104EB84013D4800EBC100068382
:1019100004EB84013A4800EBC1004761002104EB6D
:101920008402374800EBC2004089CDE9001004EB87
:101930008408DFF8CCC00CEBC80C0291BCF8048022
:1019400004EB8409DFF8B8C00CEBC90CBCF81CC070
:10195000C4440CF1180C1FFA8CF304EB8408DFF874
:10196000A0C00CEBC80CBCF8048004EB8409DFF8C1
:1019700090C00CEBC90CBCF81CC0C4441FFA8CF21C
:1019800004EB8408DFF878C03CF8388004EB840965
:101990000CEBC90CBCF81AC0C4441FFA8CF004EB61
:1019A0008408DFF85CC00CEBC80CBCF82410FFF70F
:1019B00089FE1DB304EB8403114A02EBC3020097B6
:1019C000938804EB840C0E4A02EBCC02928B99189C
:1019D00004EB84030A4A32F8333004EB840C02EB44
:1019E000CC02528B981833462A4600F0C7FC0146B9
:1019F00004EB8402024800EBC2008184BDE8FE8350
:101A00003000002010B50249D1F82804804710BDED
:101A1000240000200149C1F8280470472400002058
:101A20000020034908720021014841728172704709
:101A3000240000201FB5114800F052F8684600F05D
:101A400037F90F4800900020ADF804004BF6FF7006
:101A5000ADF806001520ADF808004FF48060ADF831
:101A60000A000001ADF80C006946044800F09EF839
:101A70000121024800F027F81FBD0000005400407B
:101A8000801A060021B1028842F48062028004E0DC
:101A900002884FF6FF331A400280704770B5024645
:101AA0000024002500230020958A138B1B0445EA9F
:101AB000030626F07F4404EA01068E4201D101208C
:101AC00000E0002070BD21B1028842F001020280D6
:101AD00004E002884FF6FE731A400280704700004F
:101AE00010B504461348844209D10121480500F08D
:101AF00029FD00214FF4001000F024FD18E00E48ED
:101B0000844209D10121880500F01CFD00214FF419
:101B1000800000F017FD0BE00848844208D1012145
:101B2000C80500F00FFD00214FF4000000F00AFD91
:101B300010BD00000054004000580040005C004010
:101B400021B1028842F48072028004E002884FF6DC
:101B5000FF631A400280704721B1028842F400728C
:101B6000028004E002884FF6FF531A40028070475B
:101B70000CB50246002000230193009300920B0F46
:101B8000019321F07F41019B1BB1009B1433009313
:101B900003E0090C009B18330093009B1B680B406B
:101BA0000BB1012000E000200CBD00002DE9FF4733
:101BB00004460D460026B1460427DFF8CC80A688EF
:101BC0004FF6C0700640684600F0ECFCDDF8088077
:101BD0002E48B8FBF0F01FFA80F946EA0906A68005
:101BE00020884FF6FE71084020800026284928688A
:101BF00088420CD828684000B8FBF0F087B2042F68
:101C000000DA04273E4309F10100208427E0E88838
:101C10004BF6FF71884206D1286800EB4000B8FB04
:101C2000F0F087B209E0286800EBC00101EB00107A
:101C3000B8FBF0F087B247F48047C7F30B0008B950
:101C400047F0010747F4004006434FF4967009FB44
:101C500000F04FF47A7190FBF1F0401C2084A683D1
:101C6000208840F00100208026884FF6F53006409D
:101C7000A8886989084306432680A88929890843DA
:101C80002081BDE8FF87000000127A0040420F006B
:101C9000A08601000146088AC0B2704712B141F027
:101CA000010101E001F0FE010182704701827047ED
:101CB00041F288310160002181804BF6FF71C180C3
:101CC0000021018141814FF48041818170470000F2
:101CD0002DE9F04106460C46154600BF4FF4003191
:101CE0003046FFF745FF0028F8D101213046FFF7C5
:101CF00027FF00BF29493046FFF7D0FE0028F9D062
:101D00006006010E00223046FFF7C8FF00BF2449DD
:101D10003046FFF7C3FE0028F9D001213046FFF717
:101D2000D2FE29463046FFF7C1FF00BF1C49891C7F
:101D30003046FFF7B3FE0028F8D001213046FFF708
:101D4000FFFE00BF15493046FFF7A8FE0028F9D076
:101D50006006010E01223046FFF7A0FF00BF0F49C9
:101D6000491C3046FFF79AFE0028F8D00021304683
:101D7000FFF788FE00BF09493F313046FFF78EFE6E
:101D80000028F8D03046FFF785FF0746012130468E
:101D9000FFF7E2FE3846BDE8F081000001000300D5
:101DA000820007002DE9F0410746884615461C468B
:101DB000069E0AE02A4641463846FFF789FF307002
:101DC000761C681CC5B2601EC4B2002CF2D1BDE8FE
:101DD000F08100002DE9F04107460C4615461E46ED
:101DE00000BF4FF400313846FFF7C2FE0028F8D19B
:101DF00001213846FFF7A4FE00BF18493846FFF717
:101E00004DFE0028F9D06006010E00223846FFF78B
:101E100045FF00BF12493846FFF740FE0028F9D0C1
:101E200029463846FFF742FF00BF0D49891C384656
:101E3000FFF734FE0028F8D031463846FFF736FF6A
:101E400000BF0749891C3846FFF728FE0028F8D054
:101E500001213846FFF780FEBDE8F0810100030054
:101E6000820007002DE9FC5F06460F46144698469F
:101E7000DDF83090019440F23F10A0EB080084B2EE
:101E800040F23F110198081A1FFA80F800254FF020
:101E9000000A0096A34600BF21E00BEB0500401CA2
:101EA00083B20BEB050081B23A46009800F0BCFA11
:101EB0002C2000F085FA4FF0000A0BE04FEA2920B1
:101EC00000F098FA09F0FF0000F094FA0AF101001E
:101ED0001FFA80FAB81B5045F0DA681C85B2A8EBEF
:101EE0000400A842D9DABDE8FC9F2DE9FF5F074650
:101EF00089461C464FF0000AD34621684888C1171E
:101F000000EB5171C910A0EBC10149B121684888AB
:101F1000C11700EB5171C910491C01F0FF0B06E01D
:101F200021684888C11700EB5171C1F3C70B4FF00E
:101F3000000828E04FF0000A5D461DE0002613E08F
:101F4000D4E9001009880AFB0181405C0121B140FD
:101F5000084038B109EBC502921B91B2B8B2029A9F
:101F600000F017F8701CC6B2082EE9DB0AF1010078
:101F700000F0FF0A681EC5B2002DDFDC7F1C08F1EF
:101F8000010000F0FF08206800884045D2DCBDE871
:101F9000FF9F70B506460C46154640F23F10001BE9
:101FA00084B2234632462146304600F03DFA2C20CA
:101FB00000F006FA281200F01DFAE8B200F01AFA52
:101FC00070BD2DE9F04104462612E7B240F23F13FE
:101FD000EF220021084600F027FA2C2000F0F0F94B
:101FE000002506E0B0B200F005FAB8B200F002FA3F
:101FF0006D1CB5F5963FF5D3BDE8F08110B54FF4F3
:1020000000419448FEF720FB08219348FEF71CFB93
:10201000012000F0D5F9642000F0C2FDCB2000F0D3
:10202000CFF9392000F0E6F92C2000F0E3F9002088
:1020300000F0E0F9342000F0DDF9022000F0DAF9D8
:10204000CF2000F0BDF9002000F0D4F9C12000F04D
:10205000D1F9302000F0CEF9E82000F0B1F9852068
:1020600000F0C8F9002000F0C5F9782000F0C2F9AE
:10207000EA2000F0A5F9002000F0BCF9002000F0F3
:10208000B9F9ED2000F09CF9642000F0B3F90320C9
:1020900000F0B0F9122000F0ADF9812000F0AAF9AB
:1020A000F72000F08DF9202000F0A4F9C02000F006
:1020B00087F9232000F09EF9C12000F081F910205B
:1020C00000F098F9C52000F07BF93E2000F092F96D
:1020D000282000F08FF9C72000F072F9862000F068
:1020E00089F9362000F06CF9482000F083F93A2095
:1020F00000F066F9552000F07DF9B12000F060F99C
:10210000002000F077F9182000F074F9B62000F0F4
:1021100057F9082000F06EF9822000F06BF92720B3
:1021200000F068F9F22000F04BF9002000F062F9AD
:102130002A2000F045F9002000F05CF9002000F0B2
:1021400059F9002000F056F9EF2000F053F92B2048
:1021500000F036F9002000F04DF9002000F04AF9B7
:10216000012000F047F93F2000F044F9262000F05C
:1021700027F9012000F03EF9E02000F021F90F20BE
:1021800000F038F9312000F035F92B2000F032F959
:102190000C2000F02FF90E2000F02CF9082000F0A0
:1021A00029F94E2000F026F9F12000F023F937201C
:1021B00000F020F9072000F01DF9102000F01AF9B6
:1021C000032000F017F90E2000F014F9092000F0A8
:1021D00011F9002000F00EF9E12000F0F1F80020E4
:1021E00000F008F90E2000F005F9142000F002F9C3
:1021F000032000F0FFF8112000F0FCF8072000F0A9
:10220000F9F8312000F0F6F8C12000F0F3F848208A
:1022100000F0F0F8082000F0EDF80F2000F0EAF8E8
:102220000C2000F0E7F8312000F0E4F8362000F050
:10223000E1F80F2000F0DEF8112000F0C1F8642072
:1022400000F0AEFC292000F0BBF82C2000F0B8F81C
:1022500010BD000000000240000C02402DE9FF4FBD
:1022600085B007461546129C00200490039002900A
:10227000824601902088A8427EDC6088A8427BDBF1
:10228000002676E0A06830F83600A8426FDCA0682F
:1022900000EBC6004088A84269DBA06830F836A091
:1022A000A06800EBC6004068A5EB0A0101EB410104
:1022B00030F811000390A06800EBC6004068A5EB61
:1022C0000A0101EB410100EB4100408802904FF010
:1022D000000B43E000200490029800F0FF0835E076
:1022E000A06800EBC6004068A5EB0A0101EB4101C4
:1022F00000EB4100808800EB0B02DDE9031000FBDE
:1023000001202169085C01904FF0000913E00120D1
:1023100000FA09F00199084048B1069A02EBC80298
:10232000A2EB090291B2B8B2089AFFF732FE09F1A6
:10233000010000F0FF09B9F1080FE8DB0498401C28
:10234000C0B20490A8F1010000F0FF08B8F1000F3E
:10235000C6DC7F1C0BF1010000F0FF0B03988345E6
:10236000B8DBB8B209B0BDE8F08F05E0FFE7701C3C
:1023700086B2A089B04285DCB8B2F3E72DE9F84314
:1023800005460F4614469846DDF82090002611E0D9
:1023900014F8016B202E00D1AD1D4346324639465C
:1023A0002846CDF80090FFF759FF054614B1202EBE
:1023B00000D06D1C20780028EAD1A8B2BDE8F883CF
:1023C00010B504464FF400710848FEF73BF94FF48E
:1023D00000410748FEF736F9204600F08DF94FF42A
:1023E00000410348FEF730F910BD0000000802402C
:1023F0000000024010B504464FF400710848FEF793
:1024000023F94FF400410748FEF71CF9204600F07D
:1024100073F94FF400410348FEF716F910BD0000B0
:1024200000080240000002402DE9F04104460D463C
:1024300016461F462A20FFF7C3FF2012FFF7DAFFD8
:10244000E0B2FFF7D7FF3012FFF7D4FFF0B2FFF78B
:10245000D1FF2B20FFF7B4FF2812FFF7CBFFE8B224
:10246000FFF7C8FF3812FFF7C5FFF8B2FFF7C2FF4A
:10247000BDE8F08100F01F02012191404209920065
:1024800002F1E022C2F800117047000070B500218F
:1024900000230F22C4781CB3174C246804F4E064B2
:1024A000C4F5E064C4F30721C1F10404E3B20A41B6
:1024B00044789C40E1B28478144021430C07210EFB
:1024C0000E4C05786155047804F01F050124AC40DA
:1024D00005786D11AD0005F1E025C5F8004109E072
:1024E000047804F01F050124AC40054D06787611F0
:1024F00045F8264070BD00000CED00E000E400E06F
:1025000080E100E029B1064A12680243044B1A60D8
:1025100004E0034A12688243014B1A6070470000CE
:102520003038024029B1064A12680243044B1A604F
:1025300004E0034A12688243014B1A6070470000AE
:102540004038024029B1064A12680243044B1A601F
:1025500004E0034A12688243014B1A60704700008E
:102560002038024029B1064A12680243044B1A601F
:1025700004E0034A12688243014B1A60704700006E
:102580004438024029B1064A12680243044B1A60DB
:1025900004E0034A12688243014B1A60704700004E
:1025A00024380240F0B50021002200240225002634
:1025B0000223324F3F6807F00C0121B1042905D0F6
:1025C000082937D105E02E4F076036E02D4F076010
:1025D00033E02A4F3F1F3F68C7F38056274F3F1F06
:1025E0003F6807F03F036EB1264FB7FBF3F7DFF804
:1025F0008CC0ACF1040CDCF800C0CCF3881C07FBE9
:102600000CF40CE01E4FB7FBF3F7DFF870C0ACF131
:10261000040CDCF800C0CCF3881C07FB0CF4174F4B
:102620003F1F3F68C7F301477F1C7D00B4FBF5F7F0
:10263000076002E0124F076000BF00BF0F4F3F6806
:1026400007F0F0010909104F7A5C0768D74047602E
:102650000A4F3F6807F4E051890A0B4F7A5C4768DC
:10266000D7408760054F3F6807F46041490B064F2C
:102670007A5C4768D740C760F0BD00000838024068
:102680000024F40000127A001400002000B585B088
:1026900000F02AF8684600F0DCF84FF48071114829
:1026A00000F0C8F80020ADF80000ADF80600ADF865
:1026B0000400ADF808004FF40070ADF80A000020E7
:1026C000ADF80C00ADF80E004FF48270ADF80200CA
:1026D0006946044800F090F80121024800F026F80D
:1026E00005B000BD003C004010B5024800F02AF8DB
:1026F00010BD0000003C004010B5044621460A48C9
:1027000000F078F800BF08480830008800F00100A9
:102710000028F8D000BF04480830008800F080008E
:102720000028F8D110BD0000003C004021B1028813
:1027300042F04002028004E002884FF6BF731A4064
:102740000280704710B504462448844208D1012114
:102750008014FFF717FF0021A014FFF713FF3CE0E0
:102760001F48844208D101210014FFF7EBFE00212D
:102770002014FFF7E7FE30E01A48844208D1012117
:10278000C013FFF7DFFE0021E013FFF7DBFE24E0BC
:102790001548844208D101214014FFF7F3FE0021BF
:1027A0006014FFF7EFFE18E01048844209D10121C0
:1027B0000805FFF7E7FE00214FF48010FFF7E2FE67
:1027C0000BE00B48844208D101214805FFF7DAFEEF
:1027D00000214FF40010FFF7D5FE10BD003001407E
:1027E00000380040003C00400034014000500140EF
:1027F000005401408181704710B50022028802F424
:1028000041520B884C8823438C882343CC88234334
:102810000C8923434C8923438C892343CC8923434C
:102820001A430280838B4FF2FF74234083830B8A09
:10283000038210BD4FF6FF62914204D0028842F439
:102840008072028004E002884FF6FF631A40028023
:1028500070470021018041808180C18001814181D8
:102860008181C181072101827047000030B50022BB
:102870008B071C0F0F2303FA04F20B4B8C1053F839
:1028800024309343084C8D1044F8253023468C1097
:1028900053F824308C07240F00FA04F42343024C2D
:1028A0008D1044F8253030BD0838014005480068D7
:1028B00040F47000034908604FF00060014980391E
:1028C0000860704788ED00E010B50121084800F06D
:1028D00096F858B10748006820B106480068401EC5
:1028E000044908600121024800F07AF810BD000098
:1028F000001000400C0000200EB5684600F0DCF827
:1029000046F28960ADF80000012001906946084850
:1029100000F090F801221146054800F081F80121ED
:10292000034800F060F83620FFF7A4FD0EBD00005C
:102930000010004010B5002028E000EB400101EB42
:10294000C002164901EB8201C98C002912DD00EB9F
:10295000400101EBC002114901EB8201C98C491E03
:102960008AB200EB400101EBC0030C4901EB83018B
:10297000CA8409E0002200EB400101EBC0030749D3
:1029800001EB830181F82420411CC8B20328D4DB69
:102990000121034800F024F810BD0000C803002006
:1029A000001400400EB5684600F086F846F28960D3
:1029B000ADF80000012001906946084800F03AF89F
:1029C00001221146054800F02BF80121034800F0D0
:1029D0000AF83720FFF74EFD0EBD0000001400403E
:1029E000CA430282704721B1028842F0010202808C
:1029F00004E002884FF6FE731A400280704730B53B
:102A00000246002000230024158A05EA0103958967
:102A100005EA010413B10CB1012000E0002030BD33
:102A20001AB183890B43838102E083898B438381BD
:102A30007047000000220288184B98420ED0184BB5
:102A400098420BD0B0F1804F08D0164B984205D079
:102A5000154B984202D0154B984204D14FF68F7314
:102A60001A404B881A43124B984207D0114B984298
:102A700004D04FF6FF431A400B891A4302804B687B
:102A8000C3620B880385054B984202D0044B9842E1
:102A900001D18B7A038601238382704700000140B5
:102AA000000401400004004000080040000C004009
:102AB00000100040001400404FF0FF314160002141
:102AC00001800181418081727047000030480068B8
:102AD00040F080502E4908602E48006844F2F00112
:102AE00008432C49086000BF2A48406800F4804031
:102AF0000028F9D026484038006840F48030244946
:102B00004039086000BF22484038006800F40030B7
:102B10000028F8D040F205701F4908601F481C4982
:102B20003C390860081F006840F08070091F086089
:102B300000BF17484038006800F000700028F8D047
:102B40001348383800681249383908600846006868
:102B500040F4004008600846006840F4A050086057
:102B60000846006820F00300801C086000BF084889
:102B70003838006800F00C000828F8D104484038C4
:102B8000006820F0010002494039086070470000E9
:102B90004038024000700040003C0240843441084C
:102BA0000349086000BF024909680029FBD170474A
:102BB0000C000020FDF795FBFDF7AEFDFDF706FCD0
:102BC000FFF79AFEFFF7EEFEFFF760FDFEF732FF1C
:102BD000FFF714FAFDF75CFC4BF6D750FFF7F1F95D
:102BE000FDF7D0FE41F28830FFF7DAFFFDF756FF20
:102BF00004E0FEF715FA0A20FFF7D2FFF9E710B557
:102C000001210846FFF77EFC01210220FFF77AFC34
:102C100001210420FFF776FC01210820FFF772FC58
:102C200001218803FFF79EFC0121C803FFF79AFCEE
:102C300001211020FFF776FC01212020FFF772FC14
:102C40000121C803FFF76EFC01214805FFF76AFC6C
:102C500010BD4FF04070E1EE100A70470000000018
:102C60000101010100001818F8FC06020206FCF838
:102C7000070F181010180F07080C06FEFE000000C2
:102C80001010101F1F1010100000C0F83E063EF874
:102C9000C00000181F070202020202071F18F0FC02
:102CA0000C060202020204030F0C18101010100888
:102CB000FEFE42424242021F1F1010101010FEFE84
:102CC00042424242421F1F0000000000FEFE404000
:102CD00040404040FEFE1F1F0000000000001F1F7C
:102CE000FEFE1F1F000000FEFE0810101F0FFEFE5C
:102CF00000000000001F1F1010101010FEFE063C08
:102D0000F0C00000FEFE1F1F000000030F181F1F71
:102D1000F0FC0C06020202060CFCF0030F0C18106B
:102D20001010180C0F03FEFE828282C67C38001F32
:102D30001F000000030F1C10387C66C2C286040806
:102D4000181010190F07020202FEFE020202000014
:102D5000001F1F000000FEFE000000000000FEFE3D
:102D6000070F1810101010180F0730F0C0000000E7
:102D7000C0F0300001071E181E070100FEFE42428F
:102D800042FE9C001F1F101010180F07FEFE40404F
:102D9000E0B81E061F1F000000071F18FEFE0E7C75
:102DA000E0000000E03C0EFEFE1F1F0000010F18B7
:102DB0000F0100001F1FF0F0101010F0E01F1F1196
:102DC00011111F0EF0F01010101F1F000000000066
:102DD000F0F0101010F0F000F01E17101010101F7F
:102DE0001FF0C0E0301010F0E0070F1911111109A9
:102DF000F0F00080E0F0F01F1F0E03001F1FF0F343
:102E00000784E4F7F31F1F0E03001F1FF0F00000FC
:102E1000C0F0301F1F0101061E18000000F0101046
:102E2000F0F010180F0100001F1FF0F0F0C00000BC
:102E300000C0F0F0F01F1F00031F180F03001F1F3A
:102E4000F0F0000000F0F01F1F0101011F1FC0E0A3
:102E500030101030E0C0070F181010180F07F0F0F6
:102E600020101030E0C0FFFF081010180F071010DE
:102E700010F0F01010100000001F1F000000F0F014
:102E8000000000F0F0000000F0F01F1F1010101FF5
:102E90001F1010101F1FF0F0808080800000F0F0E5
:102EA0001F1F1010100F0F001F1F04000200000052
:102EB000020002000800080002000C0008000200E6
:102EC0001C000B0002002C00090002004200070059
:102ED000020054000700020062000A0002007000B5
:102EE00002000200840005000200880007000200C2
:102EF00092000A000200A0000B000200B4000900CA
:102F00000200CA0007000200DC0008000200EA001C
:102F10000A000200FA00090002000E010800020087
:102F200020010800020030010D00020040010700EE
:102F300002005A010500020068010A000200720145
:102F4000070002008601070002009401070002004A
:102F5000A20107000200B00108000200BE010B0040
:102F60000200CE0107000200E40108000200F201A5
:102F70000800020002020800020012020C00020017
:102F800022020A0002003A022D002E00AA2E00089A
:102F900030003100B62E000841004100C22E00086A
:102FA00043004300C82E000845004600CE2E00080E
:102FB00048004A00DA2E00084C004C00EC2E0008B5
:102FC0004E004F00F22E000852005500FE2E000861
:102FD00076007600162F0008C200C2001C2F0008E1
:102FE000CA00CA00222F0008CC00CC00282F0008FD
:102FF000E200E5002E2F0008E800EE00462F000852
:10300000F000F000702F0008F200F200762F0008A8
:10301000F800F8007C2F0008FB00FB00822F00085E
:103020002D00FB0002000000882F000813000000A4
:103030005C2C0008000000008080808007070707E4
:10304000F8FEFFFF0707FFFEFEF8FFFFFFFF00008F
:10305000FFFFFFFF00030707070707070301181813
:103060001CFCFEFFFF000000FFFFFFFF0000000749
:103070000707077C7E7F0787FFFFFEFC00C0F0FE8E
:10308000FF3F0F03000707070707070707073C3E37
:103090003FBF8787FFFFFE7CF8F8F8FB0303FFFFC5
:1030A000FEFE010307070707070703010000E0FC16
:1030B000FF1FFFFFFFFF00F8FFFFF7F0F0FFFFFF2C
:1030C000FFF00000000000000707070700FFFFFFF8
:1030D000FFC7E7E7E7C787F3F3F3F30000FFFFFF5E
:1030E000FF01030707070707070301F8FEFFFF8734
:1030F000C7DFDF9E1CFFFFFFFF0101FFFFFFFF0097
:1031000003070707070707030107070707FFFFFF75
:103110003F0000F0FFFFFF07000006070707000061
:10312000007CFEFFFF8787FFFFFE7CFCFEFFFF03A6
:1031300003FFFFFEFC01030707070707070301FC66
:10314000FEFFFF0707FFFFFEFCC7CFDFDF1C0CFF02
:10315000FFFFFF01030707070707030300808080C5
:1031600080878787870707070700C0FFFFFF07FFE4
:10317000FFFFC00080FFFFFFE3E0E3FFFFFF8007EA
:1031800007070700000007070707FFFFFFFFC7C784
:10319000FFFF7E7CFFFFFFFF0303FFFFFFFE07072C
:1031A0000707070707070701FFFFFFFF0F0F0F0FB5
:1031B000FFFFFFFF000000000707070700000000F7
:1031C000000000FFFFFFFF0F0F0FFFFFFFFF00805A
:1031D000E0FFFFFFBF83808080FFFFFFFF803F3F56
:1031E0003F3F070707070707073F3F3F3FFFFFFF37
:1031F000FF8F8F8F00FFFFFFFF87878780070707FD
:10320000070707070701FFFFFFFF0000FFFFFFFFA2
:103210000000FFFFFFFF0100F8FDFDFF0707FFFFB4
:10322000FFFF0707FFFDFDF8000407070707000081
:103230000707070700000707070704FFFFFFFF0056
:1032400000FEFFFFFF01FFFFFFFF0707FFFDFDF887
:1032500000070707070000030707070400FFFFFF39
:10326000FF0F0F0FFFFFFFFF00FFFFFFFF0000003A
:10327000FFFFFFFF07070707010000000707070719
:10328000FFFFFFFF8080FFFFFFFFFFFFFFFF07073C
:10329000FFFFFFFF07070707000007070707F8FE04
:1032A000FEFF0707FFFEFEF8FFFFFFFF0000FFFF26
:1032B000FFFF00030307070707030300FFFFFFFFEC
:1032C0000707FFFFFEFCFFFFFFFF070707070303DA
:1032D000070707070000000000000F0F0FFFFFFFA8
:1032E000FF0F0F0F000000FFFFFFFF0000000000B6
:1032F0000007070707000000073FFFFFF8C0F8FFBF
:10330000FF3F0780F0FFFF7F077FFFFFF080070789
:10331000070700000007070707FFFFFFFF80808007
:10332000808000000000FFFFFFFFFFFFFFFF03039F
:1033300003FFFFFFFE0000FFFFFFFF070707070770
:10334000070707070703000007070707E0F0F8383B
:103350003838F8F8F0E0F1F9FD0C0E06FFFFFFFF3A
:1033600003070707070307070707E0F0F8F83838EF
:10337000F8F0F0C0FFFFFFFF0707F7F7F7F70103CB
:103380000307070707070300E0F0F8F83838F8F8F4
:10339000F0E0E1E1E1E10C0CFFFFFFF301030707BF
:1033A000070707070301F8F8F8F80000F0F8F8F845
:1033B000F8FFFFFFFFF03F03FFFFFFFF07070707CF
:1033C00003000007070707F8F8F8F80000F8F8F816
:1033D000F808FFFFFFFF0E0EFFFBFBF100070707DA
:1033E00007000003070707040000F8F8F8F838386A
:1033F000F8F8F8F80000FFFFFFFF0000FFFFFFFFF5
:10340000070707070703000007070707F8F8F8F89A
:10341000F8F00000F8F8F8F8F8F8FFFFFFFF07FFF2
:10342000FCFCFF07FFFFFFFF070707070001070777
:10343000010007070707F8F8F8F8000000F8F8F8A7
:10344000F8FFFFFFFF1E1E1EFFFFFFFF0707070716
:1034500000000007070707C0F0F8F83838F8F0F068
:10346000E0FFFFFFFF0000FFFFFFFF01030707076B
:103470000707070300F8F8F8F83038F8F8F8F0FF15
:10348000FFFFFF0000FFFFFFFF1F1F1F1F030707B6
:10349000070703E0F0F8F8383838F0F0E0FFFFFFF6
:1034A000FF000000F1F1F10003070707070703031E
:1034B00000383838F8F8F8F8383838000000FFFFDE
:1034C000FFFF0000000000000707070700000018CA
:1034D000F8F8F8000000F8F8F81800033FFFFF8044
:1034E000FFFFFF1F00001C1C1F1F1F1F0F070000F6
:1034F000F8F8F8F80000F8F8F8F83F7F7F7F7030B0
:10350000FFFFFFFF0000000000000707070704009F
:10351000030000000A0003000C00070003002A005B
:10352000090003003F000A0003005A000B000300DB
:1035300078000A00030099000A000300B7000800A1
:103540000300D5000A000300ED000A0003000B0190
:103550000400030029010B00030035010A000300E9
:1035600056010800030074010F0003008C010800DD
:103570000300B90112000300D1010B000300070290
:103580000C00030028020A0003004C020A0003009A
:103590006A020A00030088020A000300A6020B0068
:1035A0000300C40211000300E5020A00030018032F
:1035B0000A00030036030A00030054030B00030053
:1035C00072030B00030093030C000300B4030E000E
:1035D0000300D8030B00030002040A0003002304C5
:1035E0000A00030041040A0003005F040A0003000C
:1035F0007D040B0003009B040A000300BC040000D0
:103600002E002E000E35000830003A001435000858
:10361000C000C00056350008C200C6005C35000876
:10362000CA00CB007A350008CD00CE0086350008F0
:10363000D000D00092350008D200D20098350008A2
:10364000D500D5009E350008DB00DB00A43500085E
:10365000E000E000AA350008E500E500B03500080C
:10366000E700E800B6350008EA00EE00C2350008C1
:10367000F000F300E0350008F700F700F835000827
:103680002E00F700020000000036000810000000C5
:1036900034300008000000000000000000000000BE
:1036A000000000000000000000000000000000001A
:1036B000000000000000000000000000000000000A
:1036C000000000000000000000000000000000807A
:1036D000E0F0F8F8FC7E3E3E3E1F1F1F1F1F1F1E1E
:1036E0001E1E3E3C3C7878F0F0E0E0C08080000098
:1036F00000000000000000000000000000000000CA
:1037000000000000000000000000000000000000B9
:1037100000000000000000000000000000000000A9
:103720000000000000000000000000000000000099
:103730000000000000000000000000000000000089
:103740000000000000000000000000000000000079
:103750000000000000000000000000000000000069
:103760000000000000000000000000000000000059
:103770000000000000000000000000000000000049
:103780000000000000000000000000000000000039
:103790000000000000F8FEFF3F07030100000000EA
:1037A0000000000000000000000000000000000019
:1037B0000001010307070F1E3C7878F0E0C080008D
:1037C00000000000000000000000000000000000F9
:1037D00000000000000000000000000000000000E9
:1037E00000000000000000000000000000000000D9
:1037F00000000000000000000000000000000000C9
:1038000000000000000000000000000000000000B8
:1038100000000000000000000000000000000000A8
:103820000000000000000000000000000000000098
:103830000000000000000000000000000000000088
:103840000000000000000000000000000000000078
:10385000000000000000000000000000FEFFFFFF6D
:103860000000000000000000000000000000000058
:103870000000000000000000000000000000000048
:10388000000000000103070F1E3C70E0C080000034
:103890000000000000000000000000000000000028
:1038A0000000000000000000000000000000000018
:1038B0000000000000000000000000000000000008
:1038C00000000000000000000000000000000000F8
:1038D00000000000000000000000000000000000E8
:1038E00000000000000000000000000000000000D8
:1038F00000000000000000000000000000000000C8
:1039000000000000000000000000000000000000B7
:1039100000000000000000000000000000000000A7
:103920000000000000FFFFFF00000000000000009A
:103930000000000000000000000000000000000087
:103940000000000000000000000000000000000077
:103950000000000103070F1E78F0E0800000000067
:103960000000000000000000000000000000000057
:103970000000000000000000000000000000000047
:103980000000008080808080808080C0C0C0C0C077
:10399000C0C0C0C080808080808000000000000027
:1039A0000000000000000000000000000000000017
:1039B0000000000000000000000000000000000007
:1039C000000000008080C0C0C0E0E0E0E0E0E0E097
:1039D000E0E0E0F0F0F0F0F0E0E0E0E0E0E0E0E097
:1039E000E0E0E0E0E0C0C0C0C0C0C0C080809FFF99
:1039F000FEC0000000000000000000000000000009
:103A000000000000000000000000000000000000B6
:103A100000000000000000E0E000000000000000E6
:103A2000000001070F1E78F0C0800000808080C079
:103A3000C0C0E0E0E0F0F07070787838383C3C1CB2
:103A40001E1E1E1E0E0F0F0F0F0F0707070707077B
:103A5000070703030303030303030307070707071A
:103A60000F0F0F1F3F3EFEFCFCF8F0E0800000004F
:103A70000000000000000000000000000000000046
:103A8000000000000000E0F8FCFEFF7F3F1F1F0F5A
:103A90000F070707030303030303030101010101E8
:103AA0000101010101010101010101010103030300
:103AB00003030303030303071FFFFFC707070E0EDC
:103AC0000E0E0E1C1C1C1C1838383830307060600C
:103AD00060E0C0C0C080808080008080C0C0FEFFE9
:103AE000FFFEC0E0E0E070703038381C1C1C0E0E89
:103AF0000F071F3FF7E383030101010100000000EE
:103B000000000000000000000000000000000000B5
:103B100000000000000000000000000000000000A5
:103B20000000000000000000000000000000000392
:103B3000FFFFFFFFFF7E000000000000000000000C
:103B400000000000000000000000000000001F7FD7
:103B5000FFFF8300000000000000000000000000E4
:103B60000000000000000000000000000000000055
:103B70000000000000000000000000000000000045
:103B80000000073FFCE00000000000000000000013
:103B9000000000808080C0C06060F0F0F0F97D3FE0
:103BA000DF7F1FCFF73F0FFFFF0F3FF78F3F7FDF15
:103BB0003E7CF8F0E0808080000000000001071FDC
:103BC0003CF8E08000000000000000000000000061
:103BD00000000000000000000000000000000000E5
:103BE00000000000000000000000000000000000D5
:103BF000000000000080E0FCFF7F3F0F030000009A
:103C000000000000000000000000000000000000B4
:103C1000000000000000000003071F3CF0C080000F
:103C20000000000000000000000000000000000094
:103C30000000000000000000000000000000000084
:103C400000000000000000000000008081CFFFF8AD
:103C5000E0303018180C0C0606070303010100C001
:103C6000F8FFFF3F07E1FC0F0100FCFF010000FF30
:103C7000FF000003FFF800011FFCC1077FFFFFF9F1
:103C80008103020206040C08081813373E7CF0C0BA
:103C9000C080800000000000000000000000000064
:103CA0000000000000000000000000000000000014
:103CB0000000000000000080C0F0783C1F0F0703E8
:103CC00001000000000000000000000000000000F3
:103CD00000000000000000000000000000000000E4
:103CE00000000000000103070C183060C0800000D5
:103CF00000000000000000000000000000000000C4
:103D0000000000008080C0C060603090988C8C867D
:103D1000C6C3C3C1C14060616FFFF860202020208E
:103D2000303030F8FCFC3C3FFFFF1F1E1EFF1F1E03
:103D30001EFEFF1E1EFEFE0F0FFEFE1E1FFFFE1EBE
:103D40001EFFFF1E1E1FFF3F3FFCFCFCF830303003
:103D50002020202060E0E1677F7C79E1C3C3C6C6F4
:103D6000848C88989030206060C0C0808000000003
:103D700000000000000080C0E06030381C0E070327
:103D80000100000000000000000000000000000032
:103D90000000000000000000000000000000000023
:103DA0000000000000000000000000000000000013
:103DB0000000000000010306CCD858F0E02030F0ED
:103DC000F01018F8F8888C8CCCFEFEC7E7E3E3E32C
:103DD000FFF1F1F1F1F171787F7F7878383C3C3C6C
:103DE0003C3F3F3C1C1E1E1E1E1E1E1F1F1F1E0E84
:103DF0000F0F0E0F0F0F0F0F0F0F0F0F0F0F0F0FD4
:103E00000F0F0F0F0F0F0F0F0F0F0F0F0F0E0F0EC4
:103E10000E1F1F1F1F1E1E1E1E1E1E3C3C3F3F3C32
:103E20003C3C3C3878787F7F7871F1F1F1F1F3FF19
:103E3000E3E2E2C7C7FFFFCE8E8C8CFE1E1B11F1A2
:103E4000F03060E0E040C0C0000000000000000072
:103E50000000000000000000000000000000000062
:103E60000000000000000000000000000000000052
:103E700000000000000000000000000080C0602082
:103E8000FFFFFCFF3F1E1E9F0F0F0FC7C70707074F
:103E9000E3E3E3030101F1F1F1000000F8F8F800B9
:103EA0000000FCFCFC000000FCFEFEFE000000FE2A
:103EB000FEFEFE000000FFFFFFFFFF0000FFFFFF10
:103EC000FFFF000000FFFFFFFFFFFF000000FFFFFC
:103ED000FFFF000000FFFFFFFFFF000000FEFEFEEF
:103EE000FE000000FEFEFEFC0000FCFCFCFC0000EE
:103EF00000F8F8F8000000F1F1F1010103E3E3E359
:103F0000070707C7CF0F0F0F9F1E1E3FFFFCFFFFC6
:103F100018383070E0C0C0800000000000000000D1
:103F20000000000000000000000000000000000091
:103F30000000000000000000000080C06030180891
:103F40000C06030101000000FFFFFFFF00FFFFFF61
:103F5000000000FFFF000000FFFFFF000000FFFF68
:103F6000FF000000FFFFFF008080FFFFFF808080D8
:103F7000FFFFFFFFC0C0C0FFFFFFFFC0C0C0FFFFCB
:103F8000FFFFFFC0C0FFFFFFFFFFC0C0C0FFFFFF7C
:103F9000FFFFFFC0C0C0FFFFFFFFC0C0C0FFFFFFAB
:103FA000FFFFC0C0C0FFFFFFFFC0C0C0FFFFFFFF9B
:103FB0008080FFFFFFFF808000FFFFFF000000FF09
:103FC000FFFF000000FFFFFF000000FFFF000000F8
:103FD000FFFF0000FFFFFFFF0000000000010103E2
:103FE000070F0E1C3870F0E0C080000000000000D9
:103FF0000000000000000000000080C06030180CCD
:104000000603010000000000000000008080C0C026
:10401000FFFFFFFFE0FFFFFF7878787F3F3C3C3CED
:104020003F1F1F1E1E1E1F0F0F0F0F0F0F0F0F071B
:10403000070707070707070707030303030303032C
:104040000303030303030303030303030303030142
:10405000010101E16161616161616161E101010190
:104060000103030303030303030303030303030322
:1040700003030303030303070707070707070707EC
:10408000070F0F0F0F0F0F0F1F1F1E1E1E1F1F3FAB
:104090003C3C3C3F7F787878FFFFF0E0FFFFFFFF7C
:1040A000C0C080800000000000000000000000018F
:1040B00003071F3EFCF8E0C0800000000080E0F82D
:1040C0001C070300000000000000000000000000CA
:1040D00000000000FFFFFFFF0301F101F0F000000E
:1040E000F0F80000787878000078787800007C7C20
:1040F0007C7C00007C7C7C7C0000007E7E7E7E00E0
:1041000000007E7E7E7E7E00000000007F7F7F00BC
:10411000007F7F7F7F000000000000FF00B3B3003E
:1041200000B3B300FF0000000000007F7F7F7F002E
:10413000007F7F7F00000000007E7E7E7E7E00008C
:10414000007E7E7E7E0000007C7C7C7C00007C7C8F
:104150007C7C000078787800007878780000F8F0AF
:104160000000F00001F10103FFFFFFFF000000006D
:1041700000000000000000000000000000010FFF30
:10418000FFFEF8C07CFFFFC100000000000000003F
:104190000000000000000000000078787F7F7F7F33
:1041A000787878787878787878787878787878788F
:1041B000787878787878787878787878787878787F
:1041C000787878787878787878F8F8F8F8F8F8786F
:1041D000787878787878787878787878787878785F
:1041E0007878787F787B7B78787B7B787F78787835
:1041F000787878787878787878787878F8F8F8F83F
:10420000F8F8F8F8F87878787878787878787878AE
:10421000787878787878787878787878787878781E
:10422000787878787878787878787878787878780E
:104230007F7F7F7F7800000000000000000000000A
:104240000000000080C0F0FFFFFF3F070003070FE2
:104250003E7C78F0E0C0C0808000000000000000DC
:10426000000000000000000000000000000000004E
:10427000000000008080808080C0C0C0C0E0E0E01E
:10428000E0F07070703838381C1C1C0E0E0E0707DA
:104290000303030101000000000000000000000013
:1042A000000000000000000000000000000000000E
:1042B00000000000000000000000000000000000FE
:1042C00000000000000000010101010303030707D3
:1042D00007060E0E0E0C1C1C1C18383838383070AF
:1042E00070707070E0E0E0E0E0E0E0C0C0C0C0C02E
:1042F000C0C0C0C0C0C0C0C0C0C0C0C0C0C0C0C0BE
:10430000E0E0E0E0F0F0F078783C3E1E1F0F07039D
:104310000100000000000000000000000101030394
:104320000707070F0F0F0E0E0E1E1E1E1E1E1E1E4F
:104330001E1E1E0E0E0F0F0F0F0F07070707070396
:104340000303030101010000000000000000000061
:10435000000000000000000000000000000000005D
:10436000000000000000000000000000000000004D
:10437000000000000000000000000000000000003D
:10438000000000000000000000000000000000002D
:10439000000000000000000000000000000000001D
:1043A000000000000000000000000000000000000D
:1043B00000000000010101010101010101010101F1
:1043C00001010101010101010101000000000000E3
:1043D000000000000000000000000000C800850090
:1043E000DC430008943600080000000000000000D4
:1043F0000000000080C0E0F0783C1E0F0F1E3C78EB
:10440000F0E0C0800000000000000000000000009C
:104410000000000000000000000000000000020793
:104420000F1F3D78F0E0C08000000000000103078E
:104430000F1E3C78F0E0C08000000000000000008B
:1044400000000000000000103878F0E0C08000009C
:10445000000103070F1E3C78F0E0C0800000000060
:10446000000103070F1E3C78F0E0C080183C78F094
:10447000E0C080000000000103070F1E3C78F0E060
:10448000C0800000000103070F1E3C78F0E0C080F0
:104490000000000000010301000000000103070FFD
:1044A0001E3C78F0E0C08000000000010100000028
:1044B0000080C0E0F0783C1E0F0703010000000000
:1044C00000000000000000000000000000000000EC
:1044D0000103070F1E3C78F0F0783C1E0F07030124
:1044E00000000000000000000000000000000000CC
:1044F0002C003000F0440008E843000800000000F1
:104500000000000080C0E0F07878F0E0C08000009B
:1045100000000002070F1E3C78F0E0C080000000A1
:1045200000000000000000000080C0E0F0783C1EA9
:104530000F87C3C1800000000103070F1E3C78F005
:10454000E0C080000000000103070F1E3C78F0E08F
:10455000C080000000000103010000000000000115
:1045600003070F1E3C78F0E0C08000000001030745
:104570000F1E3CF8F0E0C000000000000103070F30
:104580001E1C0800000000000000000000000000E9
:10459000000000000103070F1E3C78F0783C1E0F5E
:1045A0000703010000000000000000000000000000
:1045B0002D002000B0450008FC440008DC45000840
:1045C0000000002024000000C4010008004600088C
:1045D000240000208C0A0000E00100080000000018
:1045E00000000000000000000000000000000000CB
:1045F0000000000001020304010203040607080989
:040000050800018965
:00000001FF
