:020000040800F2
:10000000500A0020290200083102000833020008CB
:10001000350200083702000839020008000000001D
:100020000000000000000000000000003B0200088B
:100030003D020008000000003F02000841020008E5
:10004000430200084302000843020008430200087C
:10005000430200084302000843020008430200086C
:10006000430200084302000843020008430200085C
:10007000430200084302000843020008430200084C
:10008000430200084302000843020008430200083C
:10009000430200084302000843020008430200082C
:1000A000430200084302000843020008430200081C
:1000B000430200084302000843020008430200080C
:1000C00043020008430200084302000843020008FC
:1000D00043020008430200084302000843020008EC
:1000E00043020008430200084302000843020008DC
:1000F00043020008430200084302000843020008CC
:1001000043020008430200084302000843020008BB
:100110004302000843020008092300087523000871
:10012000430200084302000843020008430200089B
:10013000430200084302000843020008430200088B
:10014000430200084302000843020008430200087B
:10015000430200084302000843020008430200086B
:10016000430200084302000843020008430200085B
:100170004302000843020008430200080000000098
:10018000430200084302000800F002F800F03CF8C7
:100190000AA090E8000C82448344AAF10107DA45E2
:1001A00001D100F031F8AFF2090EBAE80F0013F0F8
:1001B000010F18BFFB1A43F001031847303200004B
:1001C00050320000103A24BF78C878C1FAD85207DC
:1001D00024BF30C830C144BF04680C6070470000C1
:1001E0000023002400250026103A28BF78C1FBD840
:1001F000520728BF30C148BF0B6070471FB502F0DF
:100200003FFA1FBD10B510BD00F031F81146FFF7E1
:10021000F5FF02F0E7F900F04FF803B4FFF7F2FF43
:1002200003BC00F057F80000094880470948004720
:10023000FEE7FEE7FEE7FEE7FEE7FEE7FEE7FEE796
:10024000FEE7FEE704480549054A064B70470000F3
:10025000ED2200088901000850040020500A002007
:1002600050060020500600207047704770477546C2
:1002700000F02CF8AE4605006946534620F0070012
:10028000854618B020B5FFF7DDFFBDE820404FF0F0
:1002900000064FF000074FF000084FF0000B21F070
:1002A0000701AC46ACE8C009ACE8C009ACE8C0093D
:1002B000ACE8C0098D46704710B50446AFF3008026
:1002C0002046BDE81040FFF7A8BF00000048704777
:1002D000EC03002001491820ABBEFEE72600020017
:1002E000704710B502F00AF902F0A8F910BD00003D
:1002F00010B500242021054800F007F908B90120B5
:1003000000E000200446204610BD0000000C024022
:100310001CB504460020019001A8042303223821C3
:100320000090104801F034FB9DF804004FF4706118
:1003300001EA0020208020889DF8051008432080D5
:100340009DF806004FF4706101EA0020608060882B
:100350009DF8071008436080608840F23F11081A3A
:1003600060801CBD0054004010B500F027F8002349
:100370001A463821104801F023FB80231A46382101
:100380000D4801F01DFB8023852238210A4801F029
:1003900017FB002386223821074801F011FB0E23AA
:1003A00088223821044801F00BFB0023A4223821C5
:1003B000014801F005FB10BD005400401CB51021A0
:1003C0001B4800F0ABF8052002F002F91021184894
:1003D00000F0A6F84FF4AF7002F0FAF8684600F0AB
:1003E000A1F801208DF8040002208DF805000020FE
:1003F0008DF806008DF807002020009069460C4813
:1004000000F018F820210A4800F088F8012002F0D6
:10041000DFF82021064800F083F800208DF8040062
:1004200001208DF806006946014800F003F81CBD64
:10043000000C0240F0B50A4600210023002400BF52
:100440003DE0012505FA01F3156805EA03049C4225
:1004500034D105684F000326BE40B54305601579C9
:100460004E00B5400668354305601579012D02D070
:100470001579022D16D185684F000326BE40B5437D
:10048000856055794E00B54086683543856045687E
:1004900001268E40B5434560456896798E40B6B2D8
:1004A00035434560C5684F000326BE40B543C5606F
:1004B000D5794E00B540C6683543C560491C102942
:1004C000BFD3F0BDF0B5002300244D07ED0E02FAB6
:1004D00005F3CE1000F1200555F826504E07F70E13
:1004E0000F26BE40B543CF1000F1200646F8275036
:1004F000CE1000F1200555F8265045EA0304CE1031
:1005000000F1200545F82640F0BD024600201369A1
:100510000B400BB1012000E0002070474183704781
:10052000018370474FF6FF71016000210171417135
:100530008171C171704700001CB56846FFF7F2FF7A
:1005400000208DF8040002208DF8050001208DF8B0
:10055000060000208DF80700202000906946024820
:10056000FFF768FF1CBD0000000C02401CB5684688
:10057000FFF7D8FF01208DF8040002208DF8050058
:1005800000208DF806008DF807004FF400700090F1
:1005900069460548FFF74EFF192000906946034859
:1005A000FFF748FF1CBD000000080240000C02409D
:1005B0001CB5042206210E48FFF784FF0422072100
:1005C0000B48FFF77FFF6846FFF7ACFFC0200090A5
:1005D00002208DF804008DF8050001208DF806003A
:1005E0008DF8070069460248FFF724FF1CBD000094
:1005F0000004024010B5FFF79FFFFFF7B7FF00F0C0
:1006000003F8FFF7D5FF10BD1CB506220A211548D7
:10061000FFF758FF06220B211248FFF753FF06226F
:100620000C211048FFF74EFF6846FFF77BFF0220C2
:100630008DF804008DF8050000208DF806008DF877
:1006400007004FF4E050009069460648FFF7F2FEBD
:1006500001208DF80400C003009069460248FFF7AE
:10066000E9FE1CBD000802400000024010B515481C
:1006700090F8B20390B90121124880F8B2134FF6F6
:100680002071022000F0F2FB00220FA1022000F0F6
:100690003DFC0121162000F043FB11E00021094838
:1006A00080F8B2134DF2DA61022000F0DFFB002285
:1006B00006A1022000F02AFC0021162000F030FBE9
:1006C00010BD000028000020C2CACB00C2DBCACB8C
:1006D0000000000010B54FF6207000F011F8064839
:1006E0000068401E04490860084604490268142056
:1006F00000F038FB10BD00000000002004000020C6
:100700003EB504462146012000F0B0FB4FF6FF70D5
:100710000022CDE900206B236522BD2102909520A7
:1007200000F0E2FD3EBD000010B5074890F89003D0
:1007300048B90548B0F87A0347F26951884202D0B7
:100740000846FFF7DDFF10BD2800002010B54FF66A
:10075000207000F011F806480068401C0449086049
:10076000084604490268142000F0FCFA10BD00009D
:1007700000000020040000203EB504462146002071
:1007800000F074FB4FF6FF700022CDE90020BD237E
:100790009522AC210290A62000F0A6FD4FF6FF7036
:1007A0000022CDE90020AC23A622BD210290952095
:1007B00000F09AFD3EBD000010B5074890F86803B0
:1007C00048B90548B0F8520347F26951884202D04F
:1007D0000846FFF7D1FF10BD2800002000B58BB000
:1007E00000F014FFFE4800F00BFF00204FF6FF71F1
:1007F000CDE9000140F23F130246EF21029000F0E4
:1008000073FD0020032119224FF6FF73CDE9043256
:10081000CDE90610F3A000210223CDE9003140F21A
:100820003F134FF48F72CDE90210EF21002000F04A
:10083000ABFC00200622CDE9040206900790EEA052
:1008400000214FF6FF72CDE9001240F21D134FF464
:100850008172CDE902106321002000F095FC002098
:100860000522CDE9040206900790E5A000214FF68D
:10087000AE52CDE9001240F20113E622CDE902109A
:100880004F21002000F080FC00200522CDE9040269
:1008900006900790DBA000214FF6FF72CDE9001211
:1008A000E523CA22CDE902104F21002000F06CFCA4
:1008B00000200522CDE9040206900790D2A0002175
:1008C0004FF6AE52CDE90012C923AE22CDE9021097
:1008D0004F21002000F058FC00200522CDE9040241
:1008E00006900790C9A000214FF6FF72CDE90012D3
:1008F000AD239222CDE902104F21002000F044FCEC
:1009000000200522CDE9040206900790C0A0002136
:100910004FF6AE52CDE9001291237622CDE90210B6
:100920004F21002000F030FC00200522CDE9040218
:1009300006900790B7A000214FF6FF72CDE9001294
:1009400075235A22CDE902104F21002000F01CFC33
:1009500000200522CDE9040206900790AEA00021F8
:100960004FF6AE52CDE9001259233E22CDE90210D6
:100970004F21002000F008FC00200522CDE90402F0
:1009800006900790A5A000214FF6FF72CDE9001256
:100990003D232222CDE902104F21002000F0F4FB7C
:1009A00000200522CDE90402069007909CA00021BA
:1009B0004FF6FF72CDE90012F423DB22CDE90210DD
:1009C0009F21772000F0E0FB00200522CDE9040202
:1009D0000690079094A000214FF6FF72CDE9001217
:1009E0004FF48973F922CDE902109F21772000F09E
:1009F000CBFB0020052240F26A53CDE905204FF6DB
:100A0000AE520790CDE900020290CDE9030340F217
:100A10000113E6226321222000F0B6FB002005220C
:100A2000CDE9040206904FF6FF720790CDE900026F
:100A30000290E523CA2263210390222000F0A4FB48
:100A400000200522CDE9040206904FF6AE52079031
:100A5000CDE900020290C923AE2263210390222037
:100A600000F092FB00200522CDE9040206904FF62B
:100A7000FF720790CDE900020290AD23922263211C
:100A80000390222000F080FB00200522CDE9040223
:100A900006904FF6AE520790CDE9000202909123E6
:100AA000762263210390222000F06EFB00200522B5
:100AB000CDE9040206904FF6FF720790CDE90002DF
:100AC000029075235A2263210390222000F05CFBE0
:100AD00000200522CDE9040206904FF6AE520790A1
:100AE000CDE90002029059233E2263210390222087
:100AF00000F04AFB00200522CDE9040206904FF6E3
:100B0000FF720790CDE9000202903D23222263216B
:100B10000390104600F038FB00200522CDE90402C6
:100B20000690079042A000214FF6FF72CDE9001217
:100B3000CDE902103F48B0F894010A3080B2F423A6
:100B4000DB22D6210A9000F01FFB0020052240F294
:100B50006A53CDE905200493079037A000214FF692
:100B6000FF72CDE90012CDE902103248B0F8B801A9
:100B7000401D80B24FF48973F922D6210A9000F00B
:100B800003FB002002210A22CDE90402CDE9061070
:100B90002AA000214DF2DA620223CDE90032CDE92C
:100BA000021021230A466321002000F0EDFA2548B7
:100BB000642100220692CDE9072102920392049259
:100BC0000592099047F269500121C2239022CDE994
:100BD0000010DB21772000F00FFA1B48642135E07C
:100BE000810D0008CAF0E8EECAEEEDF2F0EEEBEB94
:100BF000E5F020CD00000000C4E0F2F7E8EAE800EC
:100C0000D2310000D2320000D2330000D2340000D2
:100C1000D2350000D2360000D2370000D2380000B2
:100C2000D220F3F1F23A0000D220E8E7EC3A0000DB
:100C3000300000002800002031323300CED5CBC078
:100C4000C62E00004D070008D506000800220692B7
:100C5000CDE907210292039204920592099047F28E
:100C60006950012181234F22CDE90010DB2177203B
:100C700000F0C2F92448642100220A23CDE906329B
:100C8000CDE908101420114620A20023CDE902323C
:100C9000CDE904104DF2DA60012131230022CDE9C3
:100CA0000010DB21772000F0A7F92E2019491A4AFD
:100CB000CDE9002102901948808D4FF6FF73322252
:100CC0004FF48E710A9001F06BF847F26950FFF70C
:100CD00053FD47F26950FFF713FD0020022140F257
:100CE0001F130246CDE90010632100F037FB0020FE
:100CF000022140F23F130246CDE90010EF2100F03F
:100D00002DFB0BB000BD00006D060008C2DBCACB96
:100D100000000000C02700088A26000828000020E4
:100D200070B505460C4654B94DF2DA61284600F01C
:100D300099FB002207A1284600F0E4FB09E04FF6EA
:100D40002071284600F08EFB002204A1284600F006
:100D5000D9FB70BDCED5CBC0C62E0000CDC0C3D050
:100D6000C5C2000070B505460E4614463146204601
:100D700000F03CFB00223146284600F0C3FB70BD6A
:100D800010B5FFF719FDFFF7CFFC10BD10B500F04F
:100D900015FB00F02DFC33480078002860D00024BB
:100DA0005CE03048418804EB840200F5527030F872
:100DB000320081420ADB2B48418804EB840200F5B3
:100DC000527000EBC2004088814200DD44E02548BB
:100DD000818804EB840200F5527000EBC200808829
:100DE00081420ADB1F48818804EB840200F55270BF
:100DF00000EBC200C088814200DD2DE004EB8401DD
:100E0000194800EBC10090F8200008BB04EB8402F5
:100E1000154901EBC201486A804704EB840112487E
:100E200000EBC100808B98B1012104EB84020E48D5
:100E300000EBC20080F8201004EB84010A4800EBAC
:100E4000C100818B04EB8402074800EBC20041849F
:100E500000200449087010BD601CC4B2032CA0DB44
:100E600000BFF8E72800002070030020FEB504460C
:100E70000D4604EB8401244800EBC100458104EBDE
:100E80008401214800EBC100818904EB84021E48E3
:100E900000EBC200428904EB84031B4800EBC30053
:100EA000008904EB8407184E06EBC706CDE9012143
:100EB0000090F38804EB8407134E06EBC706B28854
:100EC00004EB8407104E06EBC706718804EB840719
:100ED0000D4E36F8370000F007FA04EB8401304677
:100EE00000EBC100006970B104EB8403304600EBF5
:100EF000C300828A04EB8403304600EBC30001691F
:100F0000204600F003F8FEBD700300202DE9FE43EB
:100F100004460D46164604EB8401364800EBC1003A
:100F20000561002104EB8402324800EBC2004089D5
:100F3000CDE9001004EB840C2E4F07EBCC07029197
:100F4000B7F804C004EB84082A4F07EBC8073F8BAF
:100F500067441837BBB204EB840C264F07EBCC0771
:100F6000B7F804C004EB8408224F07EBC8073F8B97
:100F70006744BAB204EB840C1E4F37F83CC004EB54
:100F8000840807EBC807FF8A6744B8B204EB840CF7
:100F9000184F07EBCC07F98B00F0A6F93DB304EB33
:100FA0008407144B03EBC7039F8804EB840C114B9D
:100FB00003EBCC031B8BF91804EB84070D4B33F8C0
:100FC000377004EB840C03EBCC03DB8AF81804EBDA
:100FD0008407084B03EBC7031A69334600F03CFF54
:100FE000014604EB8402034800EBC200C183BDE864
:100FF000FE830000700300202DE9FE4F04460F46DB
:1010000015469846DDF848B0DDE90C9A0F9E5C481D
:10101000407A00EB80015B4820F831405848407A24
:1010200000EB8001574800EBC10047805448407AEC
:1010300000EB8001534800EBC10085805048407AA6
:1010400000EB80014F4800EBC100A0F806804C483F
:10105000407A00EB80014B4800EBC100A0F80890FB
:101060004748407A00EB8001464800EBC100A0F8F9
:101070000AA04348407A00EB8002424800EBC200DD
:101080000E9981813E48407A00EB80013D4800EB9B
:10109000C10006613A48407A00EB8002394800EB13
:1010A000C200109981823648407A00EB80023548B0
:1010B00000EBC2001199C1823148407A00EB8001F7
:1010C000304800EBC100A0F818B02D48407A00EB82
:1010D00080022C4800EBC200139981762848407AA0
:1010E00000EB8002274800EBC200149981830021A5
:1010F0002348407A00EB8002224800EBC20080F8CF
:1011000020101F48407A00EB80021E4800EBC2000E
:1011100041841B48407A00EB80021A4800EBC20071
:10112000159941620E9843462A463946CDE9009A00
:101130000290204600F0D8F88EB105EB0B01119A11
:10114000A0183246109B00F087FE01460C48407AFA
:1011500000EB80020B4800EBC200C18308E00021D5
:101160000748407A00EB8002064800EBC200C183CA
:101170000348407A401CC1B201484172BDE8FE8F6D
:1011800028000020700300202DE9FE4F04460F4682
:1011900015469846DDF848B0DDE90C9A0F9E514897
:1011A000007A00EBC0014F480C3020F821400C3889
:1011B000007A00EBC0014B480C3000EB8100478007
:1011C0004848007A00EBC00146480C3000EB810033
:1011D00085804448007A00EBC00142480C3000EBA7
:1011E0008100A0F806803F48007A00EBC0013D482E
:1011F0000C3000EB8100A0F808903A48007A00EB30
:10120000C00138480C3000EB8100A0F80AA0354836
:10121000007A00EBC00233480C3000EB82000E99DC
:1012200081813048007A00EBC0012E480C3000EB81
:10123000810006612B48007A00EBC00229480C307F
:1012400000EB8200109981822648007A00EBC002F0
:1012500024480C3000EB82001199C1822148007AA9
:1012600000EBC0011F480C3000EB8100A0F818B063
:101270001C48007A00EBC0021A480C3000EB8200D8
:101280001399C1610E9843462A463946CDE9009A22
:101290000290204600F028F896B105EB0B01119A58
:1012A000A0183246109B00F0D7FD01460D48007A89
:1012B00000EBC0020B480C3000EB8200018409E017
:1012C00000210848007A00EBC00206480C3000EB11
:1012D000820001840348007A401C02490872BDE87C
:1012E000FE8F0000280000202DE9F84F06460F462B
:1012F00090469946DDE90BA50A9C4B464246394685
:101300003046CDF800A000F0A3FB002C24DD601EC9
:10131000304481B24B4642463046009500F098FB7F
:10132000601EA9EB000082B24B463946304600955C
:1013300000F08EFB611E791A88B24B464246394650
:10134000009500F085FB601E404483B2424639465A
:101350003046009500F07CFBBDE8F88F2DE9F8439E
:1013600006460F4690469946DDE90845601E304422
:1013700081B24B4642463046009500F069FB601E44
:10138000A9EB000082B24B4639463046009500F08A
:101390005FFB611E791A88B24B464246394600957A
:1013A00000F056FB601E404483B242463946304648
:1013B000009500F04DFBBDE8F883000010B5FEF786
:1013C00097FF084908700846007850B10648FEF7B4
:1013D0009FFF054800880349488003484188014829
:1013E000818010BD2800002012000020F0B50022EE
:1013F000002428B930230B70491C00230B70F0BD6A
:10140000002802DA2D230B70491C10E00A2390FB00
:10141000F3F503FB150330330B700A2390FBF3F352
:1014200013B1491C531CDAB20A2390FBF3F00028D5
:10143000ECD1891A002309E0CC5C8D18ED1A2D78C7
:10144000CD548D18ED1A2C705D1CEBB202EBD276E8
:10145000012707EB66069E42EEDC00238D186B70B9
:1014600000BFCCE7FEB504460D4604EBC40124489A
:1014700000EB8100458104EBC401214800EB8100B1
:10148000818904EBC4021E4800EB8200428904EB10
:10149000C4031B4800EB8300008904EBC407184E0B
:1014A00006EB8706CDE901210090F38804EBC40721
:1014B000134E06EB8706B28804EBC407104E06EB0A
:1014C0008706718804EBC4070D4E36F82700FFF736
:1014D0000BFF04EBC401304600EB8100006970B1E2
:1014E00004EBC403304600EB8300828A04EBC403A0
:1014F000304600EB83000169204600F003F8FEBD92
:10150000340000202DE9FE4304460D46164604EB48
:10151000C401364800EB81000561002104EBC402E0
:10152000324800EB82004089CDE9001004EBC40C86
:101530002E4F07EB8C070291B7F804C004EBC408E8
:101540002A4F07EB88073F8B67441837BBB204EB81
:10155000C40C264F07EB8C07B7F804C004EBC40893
:10156000224F07EB88073F8B6744BAB204EBC40CE9
:101570001E4F37F82CC004EBC40807EB8807FF8A1E
:101580006744B8B204EBC40C184F07EB8C07398CD6
:10159000FFF7AAFE3DB304EBC407144B03EB87032C
:1015A0009F8804EBC40C114B03EB8C031B8BF918C5
:1015B00004EBC4070D4B33F8277004EBC40C03EBAA
:1015C0008C03DB8AF81804EBC407084B03EB870392
:1015D0001A69334600F040FC014604EBC40203489C
:1015E00000EB82000184BDE8FE830000340000208F
:1015F00010B50249D1F8C003804710BD2800002073
:101600000149C1F8C00370472800002000200349A9
:101610000872002101484172817270472800002041
:101620001FB5114800F052F8684600F037F90F482E
:1016300000900020ADF804004BF6FF70ADF80600F6
:101640001520ADF808004FF48060ADF80A000001E5
:10165000ADF80C006946044800F09EF801210248EC
:1016600000F027F81FBD000000540040A0860100D4
:1016700021B1028842F48062028004E002884FF6C1
:10168000FF331A400280704770B5024600240025DF
:1016900000230020958A138B1B0445EA030626F0DD
:1016A0007F4404EA01068E4201D1012000E00020BF
:1016B00070BD21B1028842F00102028004E002887C
:1016C0004FF6FE731A4002807047000010B50446C2
:1016D0001348844209D10121480500F083FC002110
:1016E0004FF4001000F07EFC18E00E48844209D14F
:1016F0000121880500F076FC00214FF4800000F005
:1017000071FC0BE00848844208D10121C80500F0B3
:1017100069FC00214FF4000000F064FC10BD0000E3
:101720000054004000580040005C004021B1028895
:1017300042F48072028004E002884FF6FF631A4090
:101740000280704721B1028842F40072028004E0F6
:1017500002884FF6FF531A40028070470CB50246CC
:10176000002000230193009300920B0F019321F0BE
:101770007F41019B1BB1009B1433009303E0090CD4
:10178000009B18330093009B1B680B400BB101209A
:1017900000E000200CBD00002DE9FF4704460D4687
:1017A0000026B1460427DFF8CC80A6884FF6C0702B
:1017B0000640684600F036FCDDF808802E48B8FB8D
:1017C000F0F01FFA80F946EA0906A68020884FF655
:1017D000FE710840208000262849286888420CD8DD
:1017E00028684000B8FBF0F087B2042F00DA042725
:1017F0003E4309F10100208427E0E8884BF6FF71A1
:10180000884206D1286800EB4000B8FBF0F087B2B0
:1018100009E0286800EBC00101EB0010B8FBF0F014
:1018200087B247F48047C7F30B0008B947F00107B8
:1018300047F4004006434FF4967009FB00F04FF464
:101840007A7190FBF1F0401C2084A683208840F040
:101850000100208026884FF6F5300640A888698967
:10186000084306432680A889298908432081BDE8CA
:10187000FF87000000127A0040420F00A08601009E
:101880000146088AC0B2704712B141F0010101E07F
:1018900001F0FE01018270470182704741F28831F8
:1018A0000160002181804BF6FF71C1800021018120
:1018B00041814FF480418181704700002DE9F04162
:1018C00006460C46154600BF4FF400313046FFF780
:1018D00045FF0028F8D101213046FFF727FF00BF60
:1018E00029493046FFF7D0FE0028F9D06006010EE6
:1018F00000223046FFF7C8FF00BF24493046FFF7FB
:10190000C3FE0028F9D001213046FFF7D2FE294658
:101910003046FFF7C1FF00BF1C49891C3046FFF766
:10192000B3FE0028F8D001213046FFF7FFFE00BFCC
:1019300015493046FFF7A8FE0028F9D06006010ED1
:1019400001223046FFF7A0FF00BF0F49491C304677
:10195000FFF79AFE0028F8D000213046FFF788FEF6
:1019600000BF09493F313046FFF78EFE0028F8D00E
:101970003046FFF785FF074601213046FFF7E2FEBC
:101980003846BDE8F0810000010003008200070036
:101990002DE9F0410746884615461C46069E0AE09A
:1019A0002A4641463846FFF789FF3070761C681C8E
:1019B000C5B2601EC4B2002CF2D1BDE8F0810000B7
:1019C0002DE9F04107460C4615461E4600BF4FF470
:1019D00000313846FFF7C2FE0028F8D10121384611
:1019E000FFF7A4FE00BF18493846FFF74DFE002858
:1019F000F9D06006010E00223846FFF745FF00BF10
:101A000012493846FFF740FE0028F9D029463846EB
:101A1000FFF742FF00BF0D49891C3846FFF734FE2F
:101A20000028F8D031463846FFF736FF00BF074997
:101A3000891C3846FFF728FE0028F8D001213846D7
:101A4000FFF780FEBDE8F08101000300820007007F
:101A50002DE9FC5F06460F4614469846DDF83090A7
:101A6000019440F23F10A0EB080084B240F23F1115
:101A70000198081A1FFA80F800254FF0000A009616
:101A8000A34600BF21E00BEB0500401C83B20BEB2B
:101A9000050081B23A46009800F052FA2C2000F07E
:101AA0001BFA4FF0000A0BE04FEA292000F02EFA53
:101AB00009F0FF0000F02AFA0AF101001FFA80FA8B
:101AC000B81B5045F0DA681C85B2A8EB0400A842A8
:101AD000D9DABDE8FC9F70B506460C46154640F2C3
:101AE0003F10001B84B2234632462146304600F0A8
:101AF00027FA2C2000F0F0F9281200F007FAE8B2DB
:101B000000F004FA70BD2DE9F04104462612E7B258
:101B100040F23F13EF220021084600F011FA2C207A
:101B200000F0DAF9002506E0B0B200F0EFF9B8B243
:101B300000F0ECF96D1CB5F5963FF5D3BDE8F081EA
:101B400010B54FF400419448FEF7EAFC0821934891
:101B5000FEF7E6FC012000F0BFF9642000F038FD3C
:101B6000CB2000F0B9F9392000F0D0F92C2000F09A
:101B7000CDF9002000F0CAF9342000F0C7F90220A6
:101B800000F0C4F9CF2000F0A7F9002000F0BEF962
:101B9000C12000F0BBF9302000F0B8F9E82000F0D7
:101BA0009BF9852000F0B2F9002000F0AFF9782011
:101BB00000F0ACF9EA2000F08FF9002000F0A6F95F
:101BC000002000F0A3F9ED2000F086F9642000F079
:101BD0009DF9032000F09AF9122000F097F9812076
:101BE00000F094F9F72000F077F9202000F08EF94A
:101BF000C02000F071F9232000F088F9C12000F026
:101C00006BF9102000F082F9C52000F065F93E2044
:101C100000F07CF9282000F079F9C72000F05CF989
:101C2000862000F073F9362000F056F9482000F0C5
:101C30006DF93A2000F050F9552000F067F9B12015
:101C400000F04AF9002000F061F9182000F05EF978
:101C5000B62000F041F9082000F058F9822000F089
:101C600055F9272000F052F9F22000F035F9002054
:101C700000F04CF92A2000F02FF9002000F046F97E
:101C8000002000F043F9002000F040F9EF2000F0C0
:101C90003DF92B2000F020F9002000F037F900205A
:101CA00000F034F9012000F031F93F2000F02EF966
:101CB000262000F011F9012000F028F9E02000F0C2
:101CC0000BF90F2000F022F9312000F01FF92B2032
:101CD00000F01CF90C2000F019F90E2000F016F9A4
:101CE000082000F013F94E2000F010F9F12000F068
:101CF0000DF9372000F00AF9072000F007F910204D
:101D000000F004F9032000F001F90E2000F0FEF8C5
:101D1000092000F0FBF8002000F0F8F8E12000F0C6
:101D2000DBF8002000F0F2F80E2000F0EFF81420AD
:101D300000F0ECF8032000F0E9F8112000F0E6F8DC
:101D4000072000F0E3F8312000F0E0F8C12000F0B7
:101D5000DDF8482000F0DAF8082000F0D7F80F206E
:101D600000F0D4F80C2000F0D1F8312000F0CEF8CB
:101D7000362000F0CBF80F2000F0C8F8112000F05A
:101D8000ABF8642000F024FC292000F0A5F82C20FA
:101D900000F0A2F810BD000000000240000C02405C
:101DA0002DE9FF4F81B005468B461446DDE90F67EC
:101DB00000200090824643E000200090E01B00EBF2
:101DC000400006EB400090F8028031E04FF000093F
:101DD00023E0E01B00EB400006EB4000808800EBB6
:101DE0000A01E01B00EB400036F81020009800FBD1
:101DF00002110E98405C012101FA09F1084040B13E
:101E00000BEBC802A2EB090291B2A8B2049AFFF749
:101E100062FE09F1010000F0FF09B9F1080FD8DBFB
:101E20000098401CC0B20090A8F1010000F0FF082B
:101E3000B8F1000FCADC6D1C0AF1010000F0FF0AC6
:101E4000E01B00EB400036F810005045B4DCA8B2AF
:101E500005B0BDE8F08F00002DE9FE4306460F46B1
:101E600015469846002428E015F8014B202C00D197
:101E7000B61D2E2C0EDB3B2C0CDC2E201249134AF7
:101E80004346CDE900210290224639463046FFF70D
:101E900087FF0646C02C0CDBC0200D490D4A434687
:101EA000CDE900210290224639463046FFF778FFFF
:101EB000064615B1202C00D0761C28780028D3D1F6
:101EC000B0B2BDE8FE830000702E00083A2D000875
:101ED00094320008BE2E000810B504464FF400717D
:101EE0000848FEF71BFB4FF400410748FEF716FBBE
:101EF000204600F041F94FF400410348FEF710FB83
:101F000010BD0000000802400000024010B5044669
:101F10004FF400710848FEF703FB4FF400410748F7
:101F2000FEF7FCFA204600F027F94FF40041034881
:101F3000FEF7F6FA10BD0000000802400000024063
:101F40002DE9F04104460D4616461F462A20FFF7AC
:101F5000C3FF2012FFF7DAFFE0B2FFF7D7FF30121E
:101F6000FFF7D4FFF0B2FFF7D1FF2B20FFF7B4FF4C
:101F70002812FFF7CBFFE8B2FFF7C8FF3812FFF7D0
:101F8000C5FFF8B2FFF7C2FFBDE8F08100F01F0205
:101F9000012191404209920002F1E022C2F80011B1
:101FA0007047000029B1064A12680243044B1A60C8
:101FB00004E0034A12688243014B1A607047000034
:101FC0003038024029B1064A12680243044B1A60B5
:101FD00004E0034A12688243014B1A607047000014
:101FE0004038024029B1064A12680243044B1A6085
:101FF00004E0034A12688243014B1A6070470000F4
:102000002038024029B1064A12680243044B1A6084
:1020100004E0034A12688243014B1A6070470000D3
:1020200024380240F0B500210022002402250026B9
:102030000223324F3F6807F00C0121B1042905D07B
:10204000082937D105E02E4F076036E02D4F076095
:1020500033E02A4F3F1F3F68C7F38056274F3F1F8B
:102060003F6807F03F036EB1264FB7FBF3F7DFF889
:102070008CC0ACF1040CDCF800C0CCF3881C07FB6E
:102080000CF40CE01E4FB7FBF3F7DFF870C0ACF1B7
:10209000040CDCF800C0CCF3881C07FB0CF4174FD1
:1020A0003F1F3F68C7F301477F1C7D00B4FBF5F776
:1020B000076002E0124F076000BF00BF0F4F3F688C
:1020C00007F0F0010909104F7A5C0768D7404760B4
:1020D0000A4F3F6807F4E051890A0B4F7A5C476862
:1020E000D7408760054F3F6807F46041490B064FB2
:1020F0007A5C4768D740C760F0BD000008380240EE
:102100000024F40000127A001600002000B585B00B
:1021100000F02AF8684600F0DCF84FF480711148AE
:1021200000F0C8F80020ADF80000ADF80600ADF8EA
:102130000400ADF808004FF40070ADF80A0000206C
:10214000ADF80C00ADF80E004FF48270ADF802004F
:102150006946044800F090F80121024800F026F892
:1021600005B000BD003C004010B5024800F02AF860
:1021700010BD0000003C004010B5044621460A484E
:1021800000F078F800BF08480830008800F001002F
:102190000028F8D000BF04480830008800F0800014
:1021A0000028F8D110BD0000003C004021B1028899
:1021B00042F04002028004E002884FF6BF731A40EA
:1021C0000280704710B504462448844208D101219A
:1021D0008014FFF717FF0021A014FFF713FF3CE066
:1021E0001F48844208D101210014FFF7FBFE0021A3
:1021F0002014FFF7F7FE30E01A48844208D101218D
:10220000C013FFF7EFFE0021E013FFF7EBFE24E021
:102210001548844208D101214014FFF7F3FE002144
:102220006014FFF7EFFE18E01048844209D1012145
:102230000805FFF7E7FE00214FF48010FFF7E2FEEC
:102240000BE00B48844208D101214805FFF7DAFE74
:1022500000214FF40010FFF7D5FE10BD0030014003
:1022600000380040003C0040003401400050014074
:10227000005401408181704710B50022028802F4A9
:1022800041520B884C8823438C882343CC882343BA
:102290000C8923434C8923438C892343CC892343D2
:1022A0001A430280838B4FF2FF74234083830B8A8F
:1022B000038210BD4FF6FF62914204D0028842F4BF
:1022C0008072028004E002884FF6FF631A400280A9
:1022D00070470021018041808180C180018141815E
:1022E0008181C18107210182704700000548006893
:1022F00040F47000034908604FF0006001498039E4
:102300000860704788ED00E010B50121084800F032
:102310008EF858B10748006820B106480068401E92
:10232000044908600121024800F072F810BD000065
:10233000001000400C0000200EB5684600F0D4F8F4
:1023400046F28960ADF80000012001906946084816
:1023500000F088F801221146054800F079F80121C3
:10236000034800F058F83620FFF710FE0EBD0000BD
:102370000010004010B5002020E000EB800213495F
:1023800001EBC201498C00290EDD00EB80020F49F0
:1023900001EBC201498C491E8AB200EB80030B4954
:1023A00001EBC3014A8407E0002200EB80030749E8
:1023B00001EBC30181F82020411CC8B20328DCDBFB
:1023C0000121034800F024F810BD00007003002034
:1023D000001400400EB5684600F086F846F28960A9
:1023E000ADF80000012001906946084800F03AF875
:1023F00001221146054800F02BF80121034800F0A6
:102400000AF83720FFF7C2FD0EBD0000001400409F
:10241000CA430282704721B1028842F00102028061
:1024200004E002884FF6FE731A400280704730B510
:102430000246002000230024158A05EA010395893D
:1024400005EA010413B10CB1012000E0002030BD09
:102450001AB183890B43838102E083898B43838193
:102460007047000000220288184B98420ED0184B8B
:1024700098420BD0B0F1804F08D0164B984205D04F
:10248000154B984202D0154B984204D14FF68F73EA
:102490001A404B881A43124B984207D0114B98426E
:1024A00004D04FF6FF431A400B891A4302804B6851
:1024B000C3620B880385054B984202D0044B9842B7
:1024C00001D18B7A0386012383827047000001408B
:1024D000000401400004004000080040000C0040DF
:1024E00000100040001400404FF0FF314160002117
:1024F000018001814180817270470000304800688E
:1025000040F080502E4908602E48006844F2F001E7
:1025100008432C49086000BF2A48406800F4804006
:102520000028F9D026484038006840F4803024491B
:102530004039086000BF22484038006800F400308D
:102540000028F8D040F205701F4908601F481C4958
:102550003C390860081F006840F08070091F08605F
:1025600000BF17484038006800F000700028F8D01D
:10257000134838380068124938390860084600683E
:1025800040F4004008600846006840F4A05008602D
:102590000846006820F00300801C086000BF08485F
:1025A0003838006800F00C000828F8D1044840389A
:1025B000006820F0010002494039086070470000BF
:1025C0004038024000700040003C02408434410822
:1025D0000349086000BF024909680029FBD1704720
:1025E0000C000020FDF77DFEFEF704F8FFF7A4FEC7
:1025F000FFF7F0FE01211048FDF792FF4FF47A70CB
:10260000FFF7E6FF01210C48FDF788FFFFF77EFD8D
:10261000FFF706F8FFF794FAFDF7A6FE4BF6D75042
:10262000FFF771FAFEF7DAF804E0FEF7AFFB0A20D5
:10263000FFF7CEFFF9E70000000C024010B50121C2
:102640000846FFF7AFFC01210220FFF7ABFC012198
:102650000420FFF7A7FC01210820FFF7A3FC0121BC
:102660001020FFF7AFFC01212020FFF7ABFC012178
:10267000C803FFF7A7FC01214805FFF7A3FC10BD25
:102680004FF04070E1EE100A7047000000008080BB
:10269000808007070707F8FEFFFF0707FFFEFEF829
:1026A000FFFFFFFF0000FFFFFFFF00030707070713
:1026B0000707030118181CFCFEFFFF000000FFFFC6
:1026C000FFFF000000070707077C7E7F0787FFFFEB
:1026D000FEFC00C0F0FEFF3F0F03000707070707DF
:1026E000070707073C3E3FBF8787FFFFFE7CF8F8E0
:1026F000F8FB0303FFFFFEFE0103070707070707B9
:1027000003010000E0FCFF1FFFFFFFFF00F8FFFFD9
:10271000F7F0F0FFFFFFFFF00000000000000707E8
:10272000070700FFFFFFFFC7E7E7E7C787F3F3F3FC
:10273000F30000FFFFFFFF01030707070707070379
:1027400001F8FEFFFF87C7DFDF9E1CFFFFFFFF01D1
:1027500001FFFFFFFF000307070707070703010744
:10276000070707FFFFFF3F0000F0FFFFFF07000024
:10277000060707070000007CFEFFFF8787FFFFFEBC
:102780007CFCFEFFFF0303FFFFFEFC0103070707BE
:102790000707070301FCFEFFFF0707FFFFFEFCC75B
:1027A000CFDFDF1C0CFFFFFFFF0103070707070751
:1027B00003030080808080878787870707070700DB
:1027C0000400030000000000000000000A000300F5
:1027D0000C00070003002A00090003003F000A0064
:1027E00003005A000B00030078000A000300990060
:1027F0000A000300B70008000300D5000A00030028
:10280000ED000A0003000B0104000300290100C0D1
:10281000FFFFFF07FFFFFFC00080FFFFFFE3E0E3D4
:10282000FFFFFF800707070700000007070707FFF4
:10283000FFFFFFC7C7FFFF7E7CFFFFFFFF0303FF14
:10284000FFFFFE07070707070707070701FFFFFF4F
:10285000FF0F0F0F0FFFFFFFFF000000000707072C
:102860000700000000000000FFFFFFFF0F0F0FFF39
:10287000FFFFFF0080E0FFFFFFBF83808080FFFF3E
:10288000FFFF803F3F3F3F070707070707073F3F1F
:102890003F3FFFFFFFFF8F8F8F00FFFFFFFF878707
:1028A0008780070707070707070701FFFFFFFF00EC
:1028B00000FFFFFFFF0000FFFFFFFF0100F8FDFD2D
:1028C000FF0707FFFFFFFF0707FFFDFDF8000407F5
:1028D00007070700000707070700000707070704A7
:1028E000FFFFFFFF0000FEFFFFFF01FFFFFFFF07ED
:1028F00007FFFDFDF80007070707000003070707AC
:102900000400FFFFFFFF0F0F0FFFFFFFFF00FFFFA0
:10291000FFFF000000FFFFFFFF07070707010000A0
:102920000007070707FFFFFFFF8080FFFFFFFFFF94
:10293000FFFFFF0707FFFFFFFF070707070000076D
:10294000070707F8FEFEFF0707FFFEFEF8FFFFFF81
:10295000FF0000FFFFFFFF00030307070707030354
:1029600000FFFFFFFF0707FFFFFEFCFFFFFFFF0762
:102970000707070303070707070000000000000F11
:102980000F0FFFFFFFFF0F0F0F000000FFFFFFFF04
:1029900000000000000007070707000000073FFFD6
:1029A000FFF8C0F8FFFF3F0780F0FFFF7F077FFFC2
:1029B000FFF0800707070700000007070707FFFF72
:1029C000FFFF808080808000000000FFFFFFFFFF8E
:1029D000FFFFFF030303FFFFFFFE0000FFFFFFFFFA
:1029E0000707070707070707070703000007070789
:1029F00007E0F0F8383838F8F8F0E0F1F9FD0C0E9F
:102A000006FFFFFFFF03070707070307070707E0A6
:102A1000F0F8F83838F8F0F0C0FFFFFFFF0707F7CD
:102A2000F7F7F701030307070707070300E0F0F8CC
:102A3000F83838F8F8F0E0E1E1E1E10C0CFFFFFFD5
:102A4000F301030707070707070301F8F8F8F80081
:102A500000F0F8F8F8F8FFFFFFFFF03F03FFFFFF7B
:102A6000FF0707070703000007070707F8F8F8F84C
:102A70000000F8F8F8F808FFFFFFFF0E0EFFFBFB61
:102A8000F10007070707000003070707040000F825
:102A9000F8F8F83838F8F8F8F80000FFFFFFFF0002
:102AA00000FFFFFFFF0707070707030000070707EF
:102AB00007F8F8F8F8F8F00000F8F8F8F8F8F8FF78
:102AC000FFFFFF07FFFCFCFF07FFFFFFFF070707F4
:102AD0000700010707010007070707F8F8F8F800E3
:102AE0000000F8F8F8F8FFFFFFFF1E1E1EFFFFFFB3
:102AF000FF0707070700000007070707C0F0F8F8FF
:102B00003838F8F0F0E0FFFFFFFF0000FFFFFFFFA5
:102B100001030707070707070300F8F8F8F830383C
:102B2000F8F8F8F0FFFFFFFF0000FFFFFFFF1F1F97
:102B30001F1F030707070703E0F0F8F8383838F0DD
:102B4000F0E0FFFFFFFF000000F1F1F100030707D5
:102B5000070707030300383838F8F8F8F83838382A
:102B6000000000FFFFFFFF00000000000007070754
:102B70000700000018F8F8F8000000F8F8F818004E
:102B8000033FFFFF80FFFFFF1F00001C1C1F1F1FD4
:102B90001F0F070000F8F8F8F80000F8F8F8F83F01
:102BA0007F7F7F7030FFFFFFFF0000000000000705
:102BB000070707F8F8F8F80000F8F8F8F80000F848
:102BC000F8F8F8FFFFFFFF0000FFFFFFFF0000FF26
:102BD000FFFFFF070707070707070707070707079D
:102BE000070707000B0003000000000000000000C2
:102BF0000A0003002100080003003F000F0003004B
:102C00005700080003008400120003009C0000002D
:102C100000000000000000000000000000000000B4
:102C20000B000300D2000C000300F30000000000C2
:102C300000000A00030017010A000300350100002C
:102C4000000000000A000300530100000000000023
:102C50000A000300710100000000000000000000F5
:102C600000000B0003008F010000000000000000C6
:102C70000000000000000000000000000000000054
:102C800000000000000011000300B001000000007F
:102C90000000000000000000000000000000000034
:102CA000000000000A000300E30100000000000033
:102CB0000000000000000000000000000000000014
:102CC00000000A00030001020000000000000A00EA
:102CD00003001F020B0003003D0200000000000083
:102CE0000B0003005E020C0003007F020E000300D5
:102CF000A3020B000300CD020A000300EE02000055
:102D0000000000000A0003000C030A0003002A036D
:102D10000A00030048030B000300660300000000E4
:102D200000000000000000000000000000000A0099
:102D30000300870310000300A5030000000080804B
:102D4000808007070707F8FEFFFF0707FFFEFEF872
:102D5000FFFFFFFF0000FFFFFFFF0003070707075C
:102D60000707030118181CFCFEFFFF000000FFFF0F
:102D7000FFFF000000070707077C7E7F0787FFFF34
:102D8000FEFC00C0F0FEFF3F0F0300070707070728
:102D9000070707073C3E3FBF8787FFFFFE7CF8F829
:102DA000F8FB0303FFFFFEFE010307070707070702
:102DB00003010000E0FCFF1FFFFFFFFF00F8FFFF23
:102DC000F7F0F0FFFFFFFFF0000000000000070732
:102DD000070700FFFFFFFFC7E7E7E7C787F3F3F346
:102DE000F30000FFFFFFFF010307070707070703C3
:102DF00001F8FEFFFF87C7DFDF9E1CFFFFFFFF011B
:102E000001FFFFFFFF00030707070707070301078D
:102E1000070707FFFFFF3F0000F0FFFFFF0700006D
:102E2000060707070000007CFEFFFF8787FFFFFE05
:102E30007CFCFEFFFF0303FFFFFEFC010307070707
:102E40000707070301FCFEFFFF0707FFFFFEFCC7A4
:102E5000CFDFDF1C0CFFFFFFFF010307070707079A
:102E60000303008080808087878787070707070024
:102E70000400030000000000000000000A0003003E
:102E80000C00070003002A00090003003F000A00AD
:102E900003005A000B00030078000A0003009900A9
:102EA0000A000300B70008000300D5000A00030071
:102EB000ED000A0003000B0104000300290100C01B
:102EC000FFFFFF07FFFFFFC00080FFFFFFE3E0E31E
:102ED000FFFFFF800707070700000007070707FF3E
:102EE000FFFFFFC7C7FFFF7E7CFFFFFFFF0303FF5E
:102EF000FFFFFE07070707070707070701FFFFFF99
:102F0000FF0F0F0F0FFFFFFFFF0000000007070775
:102F10000700000000000000FFFFFFFF0F0F0FFF82
:102F2000FFFFFF0080E0FFFFFFBF83808080FFFF87
:102F3000FFFF803F3F3F3F070707070707073F3F68
:102F40003F3FFFFFFFFF8F8F8F00FFFFFFFF878750
:102F50008780070707070707070701FFFFFFFF0035
:102F600000FFFFFFFF0000FFFFFFFF0100F8FDFD76
:102F7000FF0707FFFFFFFF0707FFFDFDF80004073E
:102F800007070700000707070700000707070704F0
:102F9000FFFFFFFF0000FEFFFFFF01FFFFFFFF0736
:102FA00007FFFDFDF80007070707000003070707F5
:102FB0000400FFFFFFFF0F0F0FFFFFFFFF00FFFFEA
:102FC000FFFF000000FFFFFFFF07070707010000EA
:102FD0000007070707FFFFFFFF8080FFFFFFFFFFDE
:102FE000FFFFFF0707FFFFFFFF07070707000007B7
:102FF000070707F8FEFEFF0707FFFEFEF8FFFFFFCB
:10300000FF0000FFFFFFFF0003030707070703039D
:1030100000FFFFFFFF0707FFFFFEFCFFFFFFFF07AB
:103020000707070303070707070000000000000F5A
:103030000F0FFFFFFFFF0F0F0F000000FFFFFFFF4D
:1030400000000000000007070707000000073FFF1F
:10305000FFF8C0F8FFFF3F0780F0FFFF7F077FFF0B
:10306000FFF0800707070700000007070707FFFFBB
:10307000FFFF808080808000000000FFFFFFFFFFD7
:10308000FFFFFF030303FFFFFFFE0000FFFFFFFF43
:1030900007070707070707070707030000070707D2
:1030A00007E0F0F8383838F8F8F0E0F1F9FD0C0EE8
:1030B00006FFFFFFFF03070707070307070707E0F0
:1030C000F0F8F83838F8F0F0C0FFFFFFFF0707F717
:1030D000F7F7F701030307070707070300E0F0F816
:1030E000F83838F8F8F0E0E1E1E1E10C0CFFFFFF1F
:1030F000F301030707070707070301F8F8F8F800CB
:1031000000F0F8F8F8F8FFFFFFFFF03F03FFFFFFC4
:10311000FF0707070703000007070707F8F8F8F895
:103120000000F8F8F8F808FFFFFFFF0E0EFFFBFBAA
:10313000F10007070707000003070707040000F86E
:10314000F8F8F83838F8F8F8F80000FFFFFFFF004B
:1031500000FFFFFFFF070707070703000007070738
:1031600007F8F8F8F8F8F00000F8F8F8F8F8F8FFC1
:10317000FFFFFF07FFFCFCFF07FFFFFFFF0707073D
:103180000700010707010007070707F8F8F8F8002C
:103190000000F8F8F8F8FFFFFFFF1E1E1EFFFFFFFC
:1031A000FF0707070700000007070707C0F0F8F848
:1031B0003838F8F0F0E0FFFFFFFF0000FFFFFFFFEF
:1031C00001030707070707070300F8F8F8F8303886
:1031D000F8F8F8F0FFFFFFFF0000FFFFFFFF1F1FE1
:1031E0001F1F030707070703E0F0F8F8383838F027
:1031F000F0E0FFFFFFFF000000F1F1F1000307071F
:10320000070707030300383838F8F8F8F838383873
:10321000000000FFFFFFFF0000000000000707079D
:103220000700000018F8F8F8000000F8F8F8180097
:10323000033FFFFF80FFFFFF1F00001C1C1F1F1F1D
:103240001F0F070000F8F8F8F80000F8F8F8F83F4A
:103250007F7F7F7030FFFFFFFF000000000000074E
:10326000070707F8F8F8F80000F8F8F8F80000F891
:10327000F8F8F8FFFFFFFF0000FFFFFFFF0000FF6F
:10328000FFFFFF07070707070707070707070707E6
:10329000070707000B00030000000000000000000B
:1032A0000A0003002100080003003F000F00030094
:1032B0005700080003008400120003009C00000077
:1032C00000000000000000000000000000000000FE
:1032D0000B000300D2000C000300F300000000000C
:1032E00000000A00030017010A0003003501000076
:1032F000000000000A00030053010000000000006D
:103300000A0003007101000000000000000000003E
:1033100000000B0003008F0100000000000000000F
:10332000000000000000000000000000000000009D
:1033300000000000000011000300B00100000000C8
:10334000000000000000000000000000000000007D
:10335000000000000A000300E3010000000000007C
:10336000000000000000000000000000000000005D
:1033700000000A00030001020000000000000A0033
:1033800003001F020B0003003D02000000000000CC
:103390000B0003005E020C0003007F020E0003001E
:1033A000A3020B000300CD020A000300EE0200009E
:1033B000000000000A0003000C030A0003002A03B7
:1033C0000A00030048030B0003006603000000002E
:1033D00000000000000000000000000000000A00E3
:1033E0000300870310000300A50300000C3400084D
:1033F0000000002028000000C40100083434000848
:1034000028000020280A0000E00100080000000059
:1034100000000000000000000000000000000000AC
:10342000000000000000010203040102030406077B
:043430000809000087
:040000050800018965
:00000001FF
